{
  "_format": "hh3-artifact-1",
  "contractName": "SimpleAccountFactory",
  "sourceName": "contracts/accounts/SimpleAccountFactory.sol",
  "abi": [
    {
      "inputs": [
        {
          "internalType": "contract IEntryPoint",
          "name": "_entryPoint",
          "type": "address"
        }
      ],
      "stateMutability": "nonpayable",
      "type": "constructor"
    },
    {
      "inputs": [
        {
          "internalType": "address",
          "name": "msgSender",
          "type": "address"
        },
        {
          "internalType": "address",
          "name": "entity",
          "type": "address"
        },
        {
          "internalType": "address",
          "name": "senderCreator",
          "type": "address"
        }
      ],
      "name": "NotSenderCreator",
      "type": "error"
    },
    {
      "inputs": [],
      "name": "accountImplementation",
      "outputs": [
        {
          "internalType": "contract SimpleAccount",
          "name": "",
          "type": "address"
        }
      ],
      "stateMutability": "view",
      "type": "function"
    },
    {
      "inputs": [
        {
          "internalType": "address",
          "name": "owner",
          "type": "address"
        },
        {
          "internalType": "uint256",
          "name": "salt",
          "type": "uint256"
        }
      ],
      "name": "createAccount",
      "outputs": [
        {
          "internalType": "contract SimpleAccount",
          "name": "ret",
          "type": "address"
        }
      ],
      "stateMutability": "nonpayable",
      "type": "function"
    },
    {
      "inputs": [
        {
          "internalType": "address",
          "name": "owner",
          "type": "address"
        },
        {
          "internalType": "uint256",
          "name": "salt",
          "type": "uint256"
        }
      ],
      "name": "getAddress",
      "outputs": [
        {
          "internalType": "address",
          "name": "",
          "type": "address"
        }
      ],
      "stateMutability": "view",
      "type": "function"
    },
    {
      "inputs": [],
      "name": "senderCreator",
      "outputs": [
        {
          "internalType": "contract ISenderCreator",
          "name": "",
          "type": "address"
        }
      ],
      "stateMutability": "view",
      "type": "function"
    }
  ],
  "bytecode": "0x60c060405234801561000f575f5ffd5b5060405161413c38038061413c833981810160405281019061003191906101b9565b805f60405161003f9061013d565b61004a92919061024e565b604051809103905ff080158015610063573d5f5f3e3d5ffd5b5073ffffffffffffffffffffffffffffffffffffffff1660808173ffffffffffffffffffffffffffffffffffffffff16815250508073ffffffffffffffffffffffffffffffffffffffff166309ccb8806040518163ffffffff1660e01b8152600401602060405180830381865afa1580156100e0573d5f5f3e3d5ffd5b505050506040513d601f19601f8201168201806040525081019061010491906102b0565b73ffffffffffffffffffffffffffffffffffffffff1660a08173ffffffffffffffffffffffffffffffffffffffff1681525050506102db565b61304a806110f283390190565b5f5ffd5b5f73ffffffffffffffffffffffffffffffffffffffff82169050919050565b5f6101778261014e565b9050919050565b5f6101888261016d565b9050919050565b6101988161017e565b81146101a2575f5ffd5b50565b5f815190506101b38161018f565b92915050565b5f602082840312156101ce576101cd61014a565b5b5f6101db848285016101a5565b91505092915050565b5f819050919050565b5f6102076102026101fd8461014e565b6101e4565b61014e565b9050919050565b5f610218826101ed565b9050919050565b5f6102298261020e565b9050919050565b6102398161021f565b82525050565b6102488161016d565b82525050565b5f6040820190506102615f830185610230565b61026e602083018461023f565b9392505050565b5f61027f8261016d565b9050919050565b61028f81610275565b8114610299575f5ffd5b50565b5f815190506102aa81610286565b92915050565b5f602082840312156102c5576102c461014a565b5b5f6102d28482850161029c565b91505092915050565b60805160a051610ddb6103175f395f818160ec01528181610135015261018601525f81816101100152818161022c015261030e0152610ddb5ff3fe608060405234801561000f575f5ffd5b506004361061004a575f3560e01c806309ccb8801461004e57806311464fbe1461006c5780635fbfb9cf1461008a5780638cb84e18146100ba575b5f5ffd5b6100566100ea565b60405161006391906104b2565b60405180910390f35b61007461010e565b60405161008191906104fc565b60405180910390f35b6100a4600480360381019061009f9190610587565b610132565b6040516100b191906104fc565b60405180910390f35b6100d460048036038101906100cf9190610587565b6102e1565b6040516100e191906105d4565b60405180910390f35b7f000000000000000000000000000000000000000000000000000000000000000081565b7f000000000000000000000000000000000000000000000000000000000000000081565b5f7f000000000000000000000000000000000000000000000000000000000000000073ffffffffffffffffffffffffffffffffffffffff163373ffffffffffffffffffffffffffffffffffffffff161433307f00000000000000000000000000000000000000000000000000000000000000009091926101ea576040517f389b01ec0000000000000000000000000000000000000000000000000000000081526004016101e1939291906105ed565b60405180910390fd5b5050505f6101f884846102e1565b90505f8173ffffffffffffffffffffffffffffffffffffffff163b90505f8111156102275781925050506102db565b835f1b7f00000000000000000000000000000000000000000000000000000000000000008660405160240161025c91906105d4565b60405160208183030381529060405263c4d66de860e01b6020820180517bffffffffffffffffffffffffffffffffffffffffffffffffffffffff83818316178352505050506040516102ad9061042b565b6102b8929190610692565b8190604051809103905ff59050801580156102d5573d5f5f3e3d5ffd5b50925050505b92915050565b5f6103cf825f1b604051806020016102f89061042b565b6020820181038252601f19601f820116604052507f00000000000000000000000000000000000000000000000000000000000000008660405160240161033e91906105d4565b60405160208183030381529060405263c4d66de860e01b6020820180517bffffffffffffffffffffffffffffffffffffffffffffffffffffffff8381831617835250505050604051602001610394929190610692565b6040516020818303038152906040526040516020016103b49291906106fa565b604051602081830303815290604052805190602001206103d7565b905092915050565b5f6103e38383306103eb565b905092915050565b5f604051836040820152846020820152828152600b810160ff815373ffffffffffffffffffffffffffffffffffffffff6055822016925050509392505050565b6106888061071e83390190565b5f73ffffffffffffffffffffffffffffffffffffffff82169050919050565b5f819050919050565b5f61047a61047561047084610438565b610457565b610438565b9050919050565b5f61048b82610460565b9050919050565b5f61049c82610481565b9050919050565b6104ac81610492565b82525050565b5f6020820190506104c55f8301846104a3565b92915050565b5f6104d582610460565b9050919050565b5f6104e6826104cb565b9050919050565b6104f6816104dc565b82525050565b5f60208201905061050f5f8301846104ed565b92915050565b5f5ffd5b5f61052382610438565b9050919050565b61053381610519565b811461053d575f5ffd5b50565b5f8135905061054e8161052a565b92915050565b5f819050919050565b61056681610554565b8114610570575f5ffd5b50565b5f813590506105818161055d565b92915050565b5f5f6040838503121561059d5761059c610515565b5b5f6105aa85828601610540565b92505060206105bb85828601610573565b9150509250929050565b6105ce81610519565b82525050565b5f6020820190506105e75f8301846105c5565b92915050565b5f6060820190506106005f8301866105c5565b61060d60208301856105c5565b61061a60408301846105c5565b949350505050565b5f81519050919050565b5f82825260208201905092915050565b8281835e5f83830152505050565b5f601f19601f8301169050919050565b5f61066482610622565b61066e818561062c565b935061067e81856020860161063c565b6106878161064a565b840191505092915050565b5f6040820190506106a55f8301856105c5565b81810360208301526106b7818461065a565b90509392505050565b5f81905092915050565b5f6106d482610622565b6106de81856106c0565b93506106ee81856020860161063c565b80840191505092915050565b5f61070582856106ca565b915061071182846106ca565b9150819050939250505056fe608060405260405161068838038061068883398181016040528101906100259190610526565b61003361008e60201b60201c565b15801561004057505f8151145b15610077576040517fc28a273c00000000000000000000000000000000000000000000000000000000815260040160405180910390fd5b610087828261009560201b60201c565b50506105a8565b5f5f905090565b6100a48261011960201b60201c565b8173ffffffffffffffffffffffffffffffffffffffff167fbc7cd75a20ee27fd9adebab32041f755214dbc6bffa90cc0225b39da2e5c2d3b60405160405180910390a25f815111156101065761010082826101e860201b60201c565b50610115565b6101146102f760201b60201c565b5b5050565b5f8173ffffffffffffffffffffffffffffffffffffffff163b0361017457806040517f4c9c8ce300000000000000000000000000000000000000000000000000000000815260040161016b919061058f565b60405180910390fd5b806101a67f360894a13ba1a3210667c828492db98dca3e2076cc3735a920a3ca505d382bbc5f1b61033360201b60201c565b5f015f6101000a81548173ffffffffffffffffffffffffffffffffffffffff021916908373ffffffffffffffffffffffffffffffffffffffff16021790555050565b60605f6101fb848461033c60201b60201c565b905080801561023757505f61021461035060201b60201c565b118061023657505f8473ffffffffffffffffffffffffffffffffffffffff163b115b5b156102525761024a61035760201b60201c565b9150506102f1565b801561029557836040517f9996b31500000000000000000000000000000000000000000000000000000000815260040161028c919061058f565b60405180910390fd5b5f6102a461035060201b60201c565b11156102bd576102b861037460201b60201c565b6102ef565b6040517fd6bda27500000000000000000000000000000000000000000000000000000000815260040160405180910390fd5b505b92915050565b5f341115610331576040517fb398979f00000000000000000000000000000000000000000000000000000000815260040160405180910390fd5b565b5f819050919050565b5f5f5f835160208501865af4905092915050565b5f3d905090565b606060405190503d81523d5f602083013e3d602001810160405290565b6040513d5f823e3d81fd5b5f604051905090565b5f5ffd5b5f5ffd5b5f73ffffffffffffffffffffffffffffffffffffffff82169050919050565b5f6103b982610390565b9050919050565b6103c9816103af565b81146103d3575f5ffd5b50565b5f815190506103e4816103c0565b92915050565b5f5ffd5b5f5ffd5b5f601f19601f8301169050919050565b7f4e487b71000000000000000000000000000000000000000000000000000000005f52604160045260245ffd5b610438826103f2565b810181811067ffffffffffffffff8211171561045757610456610402565b5b80604052505050565b5f61046961037f565b9050610475828261042f565b919050565b5f67ffffffffffffffff82111561049457610493610402565b5b61049d826103f2565b9050602081019050919050565b8281835e5f83830152505050565b5f6104ca6104c58461047a565b610460565b9050828152602081018484840111156104e6576104e56103ee565b5b6104f18482856104aa565b509392505050565b5f82601f83011261050d5761050c6103ea565b5b815161051d8482602086016104b8565b91505092915050565b5f5f6040838503121561053c5761053b610388565b5b5f610549858286016103d6565b925050602083015167ffffffffffffffff81111561056a5761056961038c565b5b610576858286016104f9565b9150509250929050565b610589816103af565b82525050565b5f6020820190506105a25f830184610580565b92915050565b60d4806105b45f395ff3fe6080604052600a600c565b005b60186014601a565b6026565b565b5f60216044565b905090565b365f5f375f5f365f845af43d5f5f3e805f81146040573d5ff35b3d5ffd5b5f606e7f360894a13ba1a3210667c828492db98dca3e2076cc3735a920a3ca505d382bbc5f1b6095565b5f015f9054906101000a900473ffffffffffffffffffffffffffffffffffffffff16905090565b5f81905091905056fea26469706673582212200695b33cbd29c4a21e0ed09f6b52b904dfc52ba3f1506db568d847b73b159cad64736f6c634300081c0033a26469706673582212201b7ad1fdf301f71258e37a68e33b328906af1c3f106f3fef05084ba9bf7e57f164736f6c634300081c003360c06040523073ffffffffffffffffffffffffffffffffffffffff1660809073ffffffffffffffffffffffffffffffffffffffff16815250348015610042575f5ffd5b5060405161304a38038061304a833981810160405281019061006491906102c5565b8173ffffffffffffffffffffffffffffffffffffffff1660a08173ffffffffffffffffffffffffffffffffffffffff1681525050805f5f6101000a81548173ffffffffffffffffffffffffffffffffffffffff021916908373ffffffffffffffffffffffffffffffffffffffff1602179055506100e56100ec60201b60201c565b505061033e565b5f6100fb6101ea60201b60201c565b9050805f0160089054906101000a900460ff1615610145576040517ff92ee8a900000000000000000000000000000000000000000000000000000000815260040160405180910390fd5b67ffffffffffffffff8016815f015f9054906101000a900467ffffffffffffffff1667ffffffffffffffff16146101e75767ffffffffffffffff815f015f6101000a81548167ffffffffffffffff021916908367ffffffffffffffff1602179055507fc7f505b2f371ae2175ee4913f4499e1f2633a7b5936321eed1cdaeb6115181d267ffffffffffffffff6040516101de9190610325565b60405180910390a15b50565b5f5f6101fa61020360201b60201c565b90508091505090565b5f7ff0c57e16840df040f15088dc2f81fe391c3923bec73e23a9662efc9c229c6a005f1b905090565b5f5ffd5b5f73ffffffffffffffffffffffffffffffffffffffff82169050919050565b5f61025982610230565b9050919050565b5f61026a8261024f565b9050919050565b61027a81610260565b8114610284575f5ffd5b50565b5f8151905061029581610271565b92915050565b6102a48161024f565b81146102ae575f5ffd5b50565b5f815190506102bf8161029b565b92915050565b5f5f604083850312156102db576102da61022c565b5b5f6102e885828601610287565b92505060206102f9858286016102b1565b9150509250929050565b5f67ffffffffffffffff82169050919050565b61031f81610303565b82525050565b5f6020820190506103385f830184610316565b92915050565b60805160a051612cdd61036d5f395f6109e501525f81816111cd0152818161122201526113dc0152612cdd5ff3fe608060405260043610610122575f3560e01c80638da5cb5b1161009f578063c399ec8811610063578063c399ec88146103b5578063c4d66de8146103df578063d087d28814610407578063f23a6e6114610431578063f9bfd5f11461046d57610129565b80638da5cb5b146102d3578063ad3cb1cc146102fd578063b0d691fe14610327578063b61d27f614610351578063bc197c811461037957610129565b80634a58db19116100e65780634a58db19146102335780634d44560d1461023d5780634f1ef2861461026557806352d1902d146102815780636e9cabf8146102ab57610129565b806301ffc9a71461012d578063150b7a021461016957806319822f7c146101a557806334fcd5be146101e1578063470219181461020957610129565b3661012957005b5f5ffd5b348015610138575f5ffd5b50610153600480360381019061014e9190611a55565b6104a9565b6040516101609190611a9a565b60405180910390f35b348015610174575f5ffd5b5061018f600480360381019061018a9190611ba1565b6105e2565b60405161019c9190611c34565b60405180910390f35b3480156101b0575f5ffd5b506101cb60048036038101906101c69190611ca3565b6105f6565b6040516101d89190611d1e565b60405180910390f35b3480156101ec575f5ffd5b5061020760048036038101906102029190611d8c565b610628565b005b348015610214575f5ffd5b5061021d610758565b60405161022a9190611e47565b60405180910390f35b61023b6107e4565b005b348015610248575f5ffd5b50610263600480360381019061025e9190611ea2565b610855565b005b61027f600480360381019061027a9190612008565b6108d0565b005b34801561028c575f5ffd5b506102956108ef565b6040516102a29190612071565b60405180910390f35b3480156102b6575f5ffd5b506102d160048036038101906102cc919061208a565b610920565b005b3480156102de575f5ffd5b506102e7610985565b6040516102f491906120e4565b60405180910390f35b348015610308575f5ffd5b506103116109a9565b60405161031e919061214f565b60405180910390f35b348015610332575f5ffd5b5061033b6109e2565b60405161034891906121ca565b60405180910390f35b34801561035c575f5ffd5b50610377600480360381019061037291906121e3565b610a09565b005b348015610384575f5ffd5b5061039f600480360381019061039a91906122a9565b610a78565b6040516103ac9190611c34565b60405180910390f35b3480156103c0575f5ffd5b506103c9610a8f565b6040516103d69190611d1e565b60405180910390f35b3480156103ea575f5ffd5b5061040560048036038101906104009190612380565b610b14565b005b348015610412575f5ffd5b5061041b610c95565b6040516104289190611d1e565b60405180910390f35b34801561043c575f5ffd5b50610457600480360381019061045291906123ab565b610d1c565b6040516104649190611c34565b60405180910390f35b348015610478575f5ffd5b50610493600480360381019061048e9190612441565b610d31565b6040516104a09190611d1e565b60405180910390f35b5f7f150b7a02000000000000000000000000000000000000000000000000000000007bffffffffffffffffffffffffffffffffffffffffffffffffffffffff1916827bffffffffffffffffffffffffffffffffffffffffffffffffffffffff1916148061057357507f4e2312e0000000000000000000000000000000000000000000000000000000007bffffffffffffffffffffffffffffffffffffffffffffffffffffffff1916827bffffffffffffffffffffffffffffffffffffffffffffffffffffffff1916145b806105db57507f01ffc9a7000000000000000000000000000000000000000000000000000000007bffffffffffffffffffffffffffffffffffffffffffffffffffffffff1916827bffffffffffffffffffffffffffffffffffffffffffffffffffffffff1916145b9050919050565b5f63150b7a0260e01b905095945050505050565b5f6105ff610d44565b6106098484610dce565b90506106188460200135610efc565b61062182610eff565b9392505050565b610630610f73565b5f8282905090505f5f90505b8181101561075257368484838181106106585761065761249b565b5b905060200281019061066a91906124d4565b90505f6106df825f0160208101906106829190612380565b836020013584806040019061069791906124fb565b8080601f0160208091040260200160405190810160405280939291908181526020018383808284375f81840152601f19601f820116905080830192505050505050505a611077565b90508061074357600184036106fb576106f661108e565b610742565b826107055f6110a1565b6040517f5a15467500000000000000000000000000000000000000000000000000000000815260040161073992919061255d565b60405180910390fd5b5b5050808060010191505061063c565b50505050565b60018054610765906125b8565b80601f0160208091040260200160405190810160405280929190818152602001828054610791906125b8565b80156107dc5780601f106107b3576101008083540402835291602001916107dc565b820191905f5260205f20905b8154815290600101906020018083116107bf57829003601f168201915b505050505081565b6107ec6109e2565b73ffffffffffffffffffffffffffffffffffffffff1663b760faf934306040518363ffffffff1660e01b815260040161082591906120e4565b5f604051808303818588803b15801561083c575f5ffd5b505af115801561084e573d5f5f3e3d5ffd5b5050505050565b61085d6110d9565b6108656109e2565b73ffffffffffffffffffffffffffffffffffffffff1663205c287883836040518363ffffffff1660e01b815260040161089f9291906125f7565b5f604051808303815f87803b1580156108b6575f5ffd5b505af11580156108c8573d5f5f3e3d5ffd5b505050505050565b6108d86111cb565b6108e1826112b1565b6108eb82826112bc565b5050565b5f6108f86113da565b7f360894a13ba1a3210667c828492db98dca3e2076cc3735a920a3ca505d382bbc5f1b905090565b6109286110d9565b610381828290501461096f576040517f08c379a000000000000000000000000000000000000000000000000000000000815260040161096690612668565b60405180910390fd5b818160019182610980929190612827565b505050565b5f5f9054906101000a900473ffffffffffffffffffffffffffffffffffffffff1681565b6040518060400160405280600581526020017f352e302e3000000000000000000000000000000000000000000000000000000081525081565b5f7f0000000000000000000000000000000000000000000000000000000000000000905090565b610a11610f73565b5f610a61858585858080601f0160208091040260200160405190810160405280939291908181526020018383808284375f81840152601f19601f820116905080830192505050505050505a611077565b905080610a7157610a7061108e565b5b5050505050565b5f63bc197c8160e01b905098975050505050505050565b5f610a986109e2565b73ffffffffffffffffffffffffffffffffffffffff166370a08231306040518263ffffffff1660e01b8152600401610ad091906120e4565b602060405180830381865afa158015610aeb573d5f5f3e3d5ffd5b505050506040513d601f19601f82011682018060405250810190610b0f9190612908565b905090565b5f610b1d611461565b90505f815f0160089054906101000a900460ff161590505f825f015f9054906101000a900467ffffffffffffffff1690505f5f8267ffffffffffffffff16148015610b655750825b90505f60018367ffffffffffffffff16148015610b9857505f3073ffffffffffffffffffffffffffffffffffffffff163b145b905081158015610ba6575080155b15610bdd576040517ff92ee8a900000000000000000000000000000000000000000000000000000000815260040160405180910390fd5b6001855f015f6101000a81548167ffffffffffffffff021916908367ffffffffffffffff1602179055508315610c2a576001855f0160086101000a81548160ff0219169083151502179055505b610c3386611474565b8315610c8d575f855f0160086101000a81548160ff0219169083151502179055507fc7f505b2f371ae2175ee4913f4499e1f2633a7b5936321eed1cdaeb6115181d26001604051610c84919061297f565b60405180910390a15b505050505050565b5f610c9e6109e2565b73ffffffffffffffffffffffffffffffffffffffff166335567e1a305f6040518363ffffffff1660e01b8152600401610cd89291906129f4565b602060405180830381865afa158015610cf3573d5f5f3e3d5ffd5b505050506040513d601f19601f82011682018060405250810190610d179190612908565b905090565b5f63f23a6e6160e01b90509695505050505050565b5f610d3c8383610dce565b905092915050565b610d4c6109e2565b73ffffffffffffffffffffffffffffffffffffffff163373ffffffffffffffffffffffffffffffffffffffff16143330610d846109e2565b909192610dc9576040517ffe34a6d3000000000000000000000000000000000000000000000000000000008152600401610dc093929190612a1b565b60405180910390fd5b505050565b5f6102ba83806101000190610de391906124fb565b905014610df35760019050610ef6565b5f83806101000190610e0591906124fb565b5f90602092610e1693929190612a58565b90610e219190612a92565b90505f836001604051602001610e38929190612b9a565b604051602081830303815290604052805190602001209050610e8e6040518060400160405280600a81526020017f5375626d69747465643a00000000000000000000000000000000000000000000815250611537565b610e97826115d0565b610ed56040518060400160405280600981526020017f45787065637465643a0000000000000000000000000000000000000000000000815250611537565b610ede816115d0565b808214610ef057600192505050610ef6565b5f925050505b92915050565b50565b5f8114610f70575f3373ffffffffffffffffffffffffffffffffffffffff1682604051610f2b90612be4565b5f6040518083038185875af1925050503d805f8114610f65576040519150601f19603f3d011682016040523d82523d5f602084013e610f6a565b606091505b50509050505b50565b610f7b6109e2565b73ffffffffffffffffffffffffffffffffffffffff163373ffffffffffffffffffffffffffffffffffffffff161480610fff57505f5f9054906101000a900473ffffffffffffffffffffffffffffffffffffffff1673ffffffffffffffffffffffffffffffffffffffff163373ffffffffffffffffffffffffffffffffffffffff16145b33306110096109e2565b5f5f9054906101000a900473ffffffffffffffffffffffffffffffffffffffff1690919293611071576040517f62018a310000000000000000000000000000000000000000000000000000000081526004016110689493929190612bf8565b60405180910390fd5b50505050565b5f5f5f845160208601878987f19050949350505050565b61109f61109a5f6110a1565b611669565b565b60603d5f8311156110b957828111156110b8578290505b5b604051602082018101604052818152815f602083013e8092505050919050565b5f5f9054906101000a900473ffffffffffffffffffffffffffffffffffffffff1673ffffffffffffffffffffffffffffffffffffffff163373ffffffffffffffffffffffffffffffffffffffff16148061115e57503073ffffffffffffffffffffffffffffffffffffffff163373ffffffffffffffffffffffffffffffffffffffff16145b33305f5f9054906101000a900473ffffffffffffffffffffffffffffffffffffffff169091926111c6576040517fcbce04d80000000000000000000000000000000000000000000000000000000081526004016111bd93929190612a1b565b60405180910390fd5b505050565b7f000000000000000000000000000000000000000000000000000000000000000073ffffffffffffffffffffffffffffffffffffffff163073ffffffffffffffffffffffffffffffffffffffff16148061127857507f000000000000000000000000000000000000000000000000000000000000000073ffffffffffffffffffffffffffffffffffffffff1661125f611671565b73ffffffffffffffffffffffffffffffffffffffff1614155b156112af576040517fe07c8dba00000000000000000000000000000000000000000000000000000000815260040160405180910390fd5b565b6112b96110d9565b50565b8173ffffffffffffffffffffffffffffffffffffffff166352d1902d6040518163ffffffff1660e01b8152600401602060405180830381865afa92505050801561132457506040513d601f19601f820116820180604052508101906113219190612c4f565b60015b61136557816040517f4c9c8ce300000000000000000000000000000000000000000000000000000000815260040161135c91906120e4565b60405180910390fd5b7f360894a13ba1a3210667c828492db98dca3e2076cc3735a920a3ca505d382bbc5f1b81146113cb57806040517faa1d49a40000000000000000000000000000000000000000000000000000000081526004016113c29190612071565b60405180910390fd5b6113d583836116c4565b505050565b7f000000000000000000000000000000000000000000000000000000000000000073ffffffffffffffffffffffffffffffffffffffff163073ffffffffffffffffffffffffffffffffffffffff161461145f576040517fe07c8dba00000000000000000000000000000000000000000000000000000000815260040160405180910390fd5b565b5f5f61146b611736565b90508091505090565b805f5f6101000a81548173ffffffffffffffffffffffffffffffffffffffff021916908373ffffffffffffffffffffffffffffffffffffffff1602179055505f5f9054906101000a900473ffffffffffffffffffffffffffffffffffffffff1673ffffffffffffffffffffffffffffffffffffffff166114f26109e2565b73ffffffffffffffffffffffffffffffffffffffff167f47e55c76e7a6f1fd8996a1da8008c1ea29699cca35e7bcd057f2dec313b6e5de60405160405180910390a350565b6115cd8160405160240161154b919061214f565b6040516020818303038152906040527f41304fac000000000000000000000000000000000000000000000000000000007bffffffffffffffffffffffffffffffffffffffffffffffffffffffff19166020820180517bffffffffffffffffffffffffffffffffffffffffffffffffffffffff838183161783525050505061175f565b50565b611666816040516024016115e49190612071565b6040516020818303038152906040527f27b7cf85000000000000000000000000000000000000000000000000000000007bffffffffffffffffffffffffffffffffffffffffffffffffffffffff19166020820180517bffffffffffffffffffffffffffffffffffffffffffffffffffffffff838183161783525050505061175f565b50565b805160208201fd5b5f61169d7f360894a13ba1a3210667c828492db98dca3e2076cc3735a920a3ca505d382bbc5f1b611779565b5f015f9054906101000a900473ffffffffffffffffffffffffffffffffffffffff16905090565b6116cd82611782565b8173ffffffffffffffffffffffffffffffffffffffff167fbc7cd75a20ee27fd9adebab32041f755214dbc6bffa90cc0225b39da2e5c2d3b60405160405180910390a25f8151111561172957611723828261184b565b50611732565b61173161193c565b5b5050565b5f7ff0c57e16840df040f15088dc2f81fe391c3923bec73e23a9662efc9c229c6a005f1b905090565b6117768161176e611978611997565b63ffffffff16565b50565b5f819050919050565b5f8173ffffffffffffffffffffffffffffffffffffffff163b036117dd57806040517f4c9c8ce30000000000000000000000000000000000000000000000000000000081526004016117d491906120e4565b60405180910390fd5b806118097f360894a13ba1a3210667c828492db98dca3e2076cc3735a920a3ca505d382bbc5f1b611779565b5f015f6101000a81548173ffffffffffffffffffffffffffffffffffffffff021916908373ffffffffffffffffffffffffffffffffffffffff16021790555050565b60605f61185884846119a2565b905080801561188e57505f61186b6119b6565b118061188d57505f8473ffffffffffffffffffffffffffffffffffffffff163b115b5b156118a35761189b6119bd565b915050611936565b80156118e657836040517f9996b3150000000000000000000000000000000000000000000000000000000081526004016118dd91906120e4565b60405180910390fd5b5f6118ef6119b6565b1115611902576118fd6119da565b611934565b6040517fd6bda27500000000000000000000000000000000000000000000000000000000815260040160405180910390fd5b505b92915050565b5f341115611976576040517fb398979f00000000000000000000000000000000000000000000000000000000815260040160405180910390fd5b565b5f6a636f6e736f6c652e6c6f6790505f5f835160208501845afa505050565b6119e5819050919050565b5f5f5f835160208501865af4905092915050565b5f3d905090565b606060405190503d81523d5f602083013e3d602001810160405290565b6040513d5f823e3d81fd5b6119ed612c7a565b565b5f604051905090565b5f5ffd5b5f5ffd5b5f7fffffffff0000000000000000000000000000000000000000000000000000000082169050919050565b611a3481611a00565b8114611a3e575f5ffd5b50565b5f81359050611a4f81611a2b565b92915050565b5f60208284031215611a6a57611a696119f8565b5b5f611a7784828501611a41565b91505092915050565b5f8115159050919050565b611a9481611a80565b82525050565b5f602082019050611aad5f830184611a8b565b92915050565b5f73ffffffffffffffffffffffffffffffffffffffff82169050919050565b5f611adc82611ab3565b9050919050565b611aec81611ad2565b8114611af6575f5ffd5b50565b5f81359050611b0781611ae3565b92915050565b5f819050919050565b611b1f81611b0d565b8114611b29575f5ffd5b50565b5f81359050611b3a81611b16565b92915050565b5f5ffd5b5f5ffd5b5f5ffd5b5f5f83601f840112611b6157611b60611b40565b5b8235905067ffffffffffffffff811115611b7e57611b7d611b44565b5b602083019150836001820283011115611b9a57611b99611b48565b5b9250929050565b5f5f5f5f5f60808688031215611bba57611bb96119f8565b5b5f611bc788828901611af9565b9550506020611bd888828901611af9565b9450506040611be988828901611b2c565b935050606086013567ffffffffffffffff811115611c0a57611c096119fc565b5b611c1688828901611b4c565b92509250509295509295909350565b611c2e81611a00565b82525050565b5f602082019050611c475f830184611c25565b92915050565b5f5ffd5b5f6101208284031215611c6757611c66611c4d565b5b81905092915050565b5f819050919050565b611c8281611c70565b8114611c8c575f5ffd5b50565b5f81359050611c9d81611c79565b92915050565b5f5f5f60608486031215611cba57611cb96119f8565b5b5f84013567ffffffffffffffff811115611cd757611cd66119fc565b5b611ce386828701611c51565b9350506020611cf486828701611c8f565b9250506040611d0586828701611b2c565b9150509250925092565b611d1881611b0d565b82525050565b5f602082019050611d315f830184611d0f565b92915050565b5f5f83601f840112611d4c57611d4b611b40565b5b8235905067ffffffffffffffff811115611d6957611d68611b44565b5b602083019150836020820283011115611d8557611d84611b48565b5b9250929050565b5f5f60208385031215611da257611da16119f8565b5b5f83013567ffffffffffffffff811115611dbf57611dbe6119fc565b5b611dcb85828601611d37565b92509250509250929050565b5f81519050919050565b5f82825260208201905092915050565b8281835e5f83830152505050565b5f601f19601f8301169050919050565b5f611e1982611dd7565b611e238185611de1565b9350611e33818560208601611df1565b611e3c81611dff565b840191505092915050565b5f6020820190508181035f830152611e5f8184611e0f565b905092915050565b5f611e7182611ab3565b9050919050565b611e8181611e67565b8114611e8b575f5ffd5b50565b5f81359050611e9c81611e78565b92915050565b5f5f60408385031215611eb857611eb76119f8565b5b5f611ec585828601611e8e565b9250506020611ed685828601611b2c565b9150509250929050565b5f5ffd5b7f4e487b71000000000000000000000000000000000000000000000000000000005f52604160045260245ffd5b611f1a82611dff565b810181811067ffffffffffffffff82111715611f3957611f38611ee4565b5b80604052505050565b5f611f4b6119ef565b9050611f578282611f11565b919050565b5f67ffffffffffffffff821115611f7657611f75611ee4565b5b611f7f82611dff565b9050602081019050919050565b828183375f83830152505050565b5f611fac611fa784611f5c565b611f42565b905082815260208101848484011115611fc857611fc7611ee0565b5b611fd3848285611f8c565b509392505050565b5f82601f830112611fef57611fee611b40565b5b8135611fff848260208601611f9a565b91505092915050565b5f5f6040838503121561201e5761201d6119f8565b5b5f61202b85828601611af9565b925050602083013567ffffffffffffffff81111561204c5761204b6119fc565b5b61205885828601611fdb565b9150509250929050565b61206b81611c70565b82525050565b5f6020820190506120845f830184612062565b92915050565b5f5f602083850312156120a05761209f6119f8565b5b5f83013567ffffffffffffffff8111156120bd576120bc6119fc565b5b6120c985828601611b4c565b92509250509250929050565b6120de81611ad2565b82525050565b5f6020820190506120f75f8301846120d5565b92915050565b5f81519050919050565b5f82825260208201905092915050565b5f612121826120fd565b61212b8185612107565b935061213b818560208601611df1565b61214481611dff565b840191505092915050565b5f6020820190508181035f8301526121678184612117565b905092915050565b5f819050919050565b5f61219261218d61218884611ab3565b61216f565b611ab3565b9050919050565b5f6121a382612178565b9050919050565b5f6121b482612199565b9050919050565b6121c4816121aa565b82525050565b5f6020820190506121dd5f8301846121bb565b92915050565b5f5f5f5f606085870312156121fb576121fa6119f8565b5b5f61220887828801611af9565b945050602061221987828801611b2c565b935050604085013567ffffffffffffffff81111561223a576122396119fc565b5b61224687828801611b4c565b925092505092959194509250565b5f5f83601f84011261226957612268611b40565b5b8235905067ffffffffffffffff81111561228657612285611b44565b5b6020830191508360208202830111156122a2576122a1611b48565b5b9250929050565b5f5f5f5f5f5f5f5f60a0898b0312156122c5576122c46119f8565b5b5f6122d28b828c01611af9565b98505060206122e38b828c01611af9565b975050604089013567ffffffffffffffff811115612304576123036119fc565b5b6123108b828c01612254565b9650965050606089013567ffffffffffffffff811115612333576123326119fc565b5b61233f8b828c01612254565b9450945050608089013567ffffffffffffffff811115612362576123616119fc565b5b61236e8b828c01611b4c565b92509250509295985092959890939650565b5f60208284031215612395576123946119f8565b5b5f6123a284828501611af9565b91505092915050565b5f5f5f5f5f5f60a087890312156123c5576123c46119f8565b5b5f6123d289828a01611af9565b96505060206123e389828a01611af9565b95505060406123f489828a01611b2c565b945050606061240589828a01611b2c565b935050608087013567ffffffffffffffff811115612426576124256119fc565b5b61243289828a01611b4c565b92509250509295509295509295565b5f5f60408385031215612457576124566119f8565b5b5f83013567ffffffffffffffff811115612474576124736119fc565b5b61248085828601611c51565b925050602061249185828601611c8f565b9150509250929050565b7f4e487b71000000000000000000000000000000000000000000000000000000005f52603260045260245ffd5b5f5ffd5b5f5ffd5b5f5ffd5b5f823560016060038336030381126124ef576124ee6124c8565b5b80830191505092915050565b5f5f83356001602003843603038112612517576125166124c8565b5b80840192508235915067ffffffffffffffff821115612539576125386124cc565b5b602083019250600182023603831315612555576125546124d0565b5b509250929050565b5f6040820190506125705f830185611d0f565b81810360208301526125828184611e0f565b90509392505050565b7f4e487b71000000000000000000000000000000000000000000000000000000005f52602260045260245ffd5b5f60028204905060018216806125cf57607f821691505b6020821081036125e2576125e161258b565b5b50919050565b6125f181611e67565b82525050565b5f60408201905061260a5f8301856125e8565b6126176020830184611d0f565b9392505050565b7f496e76616c69642046616c636f6e207075626c6963206b6579206c656e6774685f82015250565b5f612652602083612107565b915061265d8261261e565b602082019050919050565b5f6020820190508181035f83015261267f81612646565b9050919050565b5f82905092915050565b5f819050815f5260205f209050919050565b5f6020601f8301049050919050565b5f82821b905092915050565b5f600883026126ec7fffffffffffffffffffffffffffffffffffffffffffffffffffffffffffffffff826126b1565b6126f686836126b1565b95508019841693508086168417925050509392505050565b5f61272861272361271e84611b0d565b61216f565b611b0d565b9050919050565b5f819050919050565b6127418361270e565b61275561274d8261272f565b8484546126bd565b825550505050565b5f5f905090565b61276c61275d565b612777818484612738565b505050565b5b8181101561279a5761278f5f82612764565b60018101905061277d565b5050565b601f8211156127df576127b081612690565b6127b9846126a2565b810160208510156127c8578190505b6127dc6127d4856126a2565b83018261277c565b50505b505050565b5f82821c905092915050565b5f6127ff5f19846008026127e4565b1980831691505092915050565b5f61281783836127f0565b9150826002028217905092915050565b6128318383612686565b67ffffffffffffffff81111561284a57612849611ee4565b5b61285482546125b8565b61285f82828561279e565b5f601f83116001811461288c575f841561287a578287013590505b612884858261280c565b8655506128eb565b601f19841661289a86612690565b5f5b828110156128c15784890135825560018201915060208501945060208101905061289c565b868310156128de57848901356128da601f8916826127f0565b8355505b6001600288020188555050505b50505050505050565b5f8151905061290281611b16565b92915050565b5f6020828403121561291d5761291c6119f8565b5b5f61292a848285016128f4565b91505092915050565b5f819050919050565b5f67ffffffffffffffff82169050919050565b5f61296961296461295f84612933565b61216f565b61293c565b9050919050565b6129798161294f565b82525050565b5f6020820190506129925f830184612970565b92915050565b5f819050919050565b5f77ffffffffffffffffffffffffffffffffffffffffffffffff82169050919050565b5f6129de6129d96129d484612998565b61216f565b6129a1565b9050919050565b6129ee816129c4565b82525050565b5f604082019050612a075f8301856120d5565b612a1460208301846129e5565b9392505050565b5f606082019050612a2e5f8301866120d5565b612a3b60208301856120d5565b612a4860408301846120d5565b949350505050565b5f5ffd5b5f5ffd5b5f5f85851115612a6b57612a6a612a50565b5b83861115612a7c57612a7b612a54565b5b6001850283019150848603905094509492505050565b5f612a9d8383612686565b82612aa88135611c70565b92506020821015612ae857612ae37fffffffffffffffffffffffffffffffffffffffffffffffffffffffffffffffff836020036008026126b1565b831692505b505092915050565b5f819050919050565b612b0a612b0582611c70565b612af0565b82525050565b5f81905092915050565b5f8154612b26816125b8565b612b308186612b10565b9450600182165f8114612b4a5760018114612b5f57612b91565b60ff1983168652811515820286019350612b91565b612b6885612690565b5f5b83811015612b8957815481890152600182019150602081019050612b6a565b838801955050505b50505092915050565b5f612ba58285612af9565b602082019150612bb58284612b1a565b91508190509392505050565b50565b5f612bcf5f83612b10565b9150612bda82612bc1565b5f82019050919050565b5f612bee82612bc4565b9150819050919050565b5f608082019050612c0b5f8301876120d5565b612c1860208301866120d5565b612c2560408301856120d5565b612c3260608301846120d5565b95945050505050565b5f81519050612c4981611c79565b92915050565b5f60208284031215612c6457612c636119f8565b5b5f612c7184828501612c3b565b91505092915050565b7f4e487b71000000000000000000000000000000000000000000000000000000005f52605160045260245ffdfea2646970667358221220f8e802fe4958f4e252aaff33af8f696fa4eab94e81d5c055057fa142f28b2bc664736f6c634300081c0033",
  "linkReferences": {},
  "deployedLinkReferences": {},
  "immutableReferences": {
    "16302": [
      {
        "length": 32,
        "start": 272
      },
      {
        "length": 32,
        "start": 556
      },
      {
        "length": 32,
        "start": 782
      }
    ],
    "16305": [
      {
        "length": 32,
        "start": 236
      },
      {
        "length": 32,
        "start": 309
      },
      {
        "length": 32,
        "start": 390
      }
    ]
  },
  "inputSourceName": "project/contracts/accounts/SimpleAccountFactory.sol",
  "buildInfoId": "solc-0_8_28-b125660446bd342a9c845217168b96e3105b6874"
}