{
  "_format": "hh3-artifact-1",
  "contractName": "SimpleAccountFactory",
  "sourceName": "contracts/accounts/SimpleAccountFactory.sol",
  "abi": [
    {
      "inputs": [
        {
          "internalType": "contract IEntryPoint",
          "name": "_entryPoint",
          "type": "address"
        }
      ],
      "stateMutability": "nonpayable",
      "type": "constructor"
    },
    {
      "inputs": [
        {
          "internalType": "address",
          "name": "msgSender",
          "type": "address"
        },
        {
          "internalType": "address",
          "name": "entity",
          "type": "address"
        },
        {
          "internalType": "address",
          "name": "senderCreator",
          "type": "address"
        }
      ],
      "name": "NotSenderCreator",
      "type": "error"
    },
    {
      "inputs": [],
      "name": "accountImplementation",
      "outputs": [
        {
          "internalType": "contract SimpleAccount",
          "name": "",
          "type": "address"
        }
      ],
      "stateMutability": "view",
      "type": "function"
    },
    {
      "inputs": [
        {
          "internalType": "address",
          "name": "owner",
          "type": "address"
        },
        {
          "internalType": "uint256",
          "name": "salt",
          "type": "uint256"
        }
      ],
      "name": "createAccount",
      "outputs": [
        {
          "internalType": "contract SimpleAccount",
          "name": "ret",
          "type": "address"
        }
      ],
      "stateMutability": "nonpayable",
      "type": "function"
    },
    {
      "inputs": [
        {
          "internalType": "address",
          "name": "owner",
          "type": "address"
        },
        {
          "internalType": "uint256",
          "name": "salt",
          "type": "uint256"
        }
      ],
      "name": "getAddress",
      "outputs": [
        {
          "internalType": "address",
          "name": "",
          "type": "address"
        }
      ],
      "stateMutability": "view",
      "type": "function"
    },
    {
      "inputs": [],
      "name": "senderCreator",
      "outputs": [
        {
          "internalType": "contract ISenderCreator",
          "name": "",
          "type": "address"
        }
      ],
      "stateMutability": "view",
      "type": "function"
    }
  ],
  "bytecode": "0x60c060405234801561000f575f5ffd5b50604051613e65380380613e65833981810160405281019061003191906101b7565b8060405161003e9061013b565b610048919061023d565b604051809103905ff080158015610061573d5f5f3e3d5ffd5b5073ffffffffffffffffffffffffffffffffffffffff1660808173ffffffffffffffffffffffffffffffffffffffff16815250508073ffffffffffffffffffffffffffffffffffffffff166309ccb8806040518163ffffffff1660e01b8152600401602060405180830381865afa1580156100de573d5f5f3e3d5ffd5b505050506040513d601f19601f820116820180604052508101906101029190610291565b73ffffffffffffffffffffffffffffffffffffffff1660a08173ffffffffffffffffffffffffffffffffffffffff1681525050506102bc565b612d92806110d383390190565b5f5ffd5b5f73ffffffffffffffffffffffffffffffffffffffff82169050919050565b5f6101758261014c565b9050919050565b5f6101868261016b565b9050919050565b6101968161017c565b81146101a0575f5ffd5b50565b5f815190506101b18161018d565b92915050565b5f602082840312156101cc576101cb610148565b5b5f6101d9848285016101a3565b91505092915050565b5f819050919050565b5f6102056102006101fb8461014c565b6101e2565b61014c565b9050919050565b5f610216826101eb565b9050919050565b5f6102278261020c565b9050919050565b6102378161021d565b82525050565b5f6020820190506102505f83018461022e565b92915050565b5f6102608261016b565b9050919050565b61027081610256565b811461027a575f5ffd5b50565b5f8151905061028b81610267565b92915050565b5f602082840312156102a6576102a5610148565b5b5f6102b38482850161027d565b91505092915050565b60805160a051610ddb6102f85f395f818160ec01528181610135015261018601525f81816101100152818161022c015261030e0152610ddb5ff3fe608060405234801561000f575f5ffd5b506004361061004a575f3560e01c806309ccb8801461004e57806311464fbe1461006c5780635fbfb9cf1461008a5780638cb84e18146100ba575b5f5ffd5b6100566100ea565b60405161006391906104b2565b60405180910390f35b61007461010e565b60405161008191906104fc565b60405180910390f35b6100a4600480360381019061009f9190610587565b610132565b6040516100b191906104fc565b60405180910390f35b6100d460048036038101906100cf9190610587565b6102e1565b6040516100e191906105d4565b60405180910390f35b7f000000000000000000000000000000000000000000000000000000000000000081565b7f000000000000000000000000000000000000000000000000000000000000000081565b5f7f000000000000000000000000000000000000000000000000000000000000000073ffffffffffffffffffffffffffffffffffffffff163373ffffffffffffffffffffffffffffffffffffffff161433307f00000000000000000000000000000000000000000000000000000000000000009091926101ea576040517f389b01ec0000000000000000000000000000000000000000000000000000000081526004016101e1939291906105ed565b60405180910390fd5b5050505f6101f884846102e1565b90505f8173ffffffffffffffffffffffffffffffffffffffff163b90505f8111156102275781925050506102db565b835f1b7f00000000000000000000000000000000000000000000000000000000000000008660405160240161025c91906105d4565b60405160208183030381529060405263c4d66de860e01b6020820180517bffffffffffffffffffffffffffffffffffffffffffffffffffffffff83818316178352505050506040516102ad9061042b565b6102b8929190610692565b8190604051809103905ff59050801580156102d5573d5f5f3e3d5ffd5b50925050505b92915050565b5f6103cf825f1b604051806020016102f89061042b565b6020820181038252601f19601f820116604052507f00000000000000000000000000000000000000000000000000000000000000008660405160240161033e91906105d4565b60405160208183030381529060405263c4d66de860e01b6020820180517bffffffffffffffffffffffffffffffffffffffffffffffffffffffff8381831617835250505050604051602001610394929190610692565b6040516020818303038152906040526040516020016103b49291906106fa565b604051602081830303815290604052805190602001206103d7565b905092915050565b5f6103e38383306103eb565b905092915050565b5f604051836040820152846020820152828152600b810160ff815373ffffffffffffffffffffffffffffffffffffffff6055822016925050509392505050565b6106888061071e83390190565b5f73ffffffffffffffffffffffffffffffffffffffff82169050919050565b5f819050919050565b5f61047a61047561047084610438565b610457565b610438565b9050919050565b5f61048b82610460565b9050919050565b5f61049c82610481565b9050919050565b6104ac81610492565b82525050565b5f6020820190506104c55f8301846104a3565b92915050565b5f6104d582610460565b9050919050565b5f6104e6826104cb565b9050919050565b6104f6816104dc565b82525050565b5f60208201905061050f5f8301846104ed565b92915050565b5f5ffd5b5f61052382610438565b9050919050565b61053381610519565b811461053d575f5ffd5b50565b5f8135905061054e8161052a565b92915050565b5f819050919050565b61056681610554565b8114610570575f5ffd5b50565b5f813590506105818161055d565b92915050565b5f5f6040838503121561059d5761059c610515565b5b5f6105aa85828601610540565b92505060206105bb85828601610573565b9150509250929050565b6105ce81610519565b82525050565b5f6020820190506105e75f8301846105c5565b92915050565b5f6060820190506106005f8301866105c5565b61060d60208301856105c5565b61061a60408301846105c5565b949350505050565b5f81519050919050565b5f82825260208201905092915050565b8281835e5f83830152505050565b5f601f19601f8301169050919050565b5f61066482610622565b61066e818561062c565b935061067e81856020860161063c565b6106878161064a565b840191505092915050565b5f6040820190506106a55f8301856105c5565b81810360208301526106b7818461065a565b90509392505050565b5f81905092915050565b5f6106d482610622565b6106de81856106c0565b93506106ee81856020860161063c565b80840191505092915050565b5f61070582856106ca565b915061071182846106ca565b9150819050939250505056fe608060405260405161068838038061068883398181016040528101906100259190610526565b61003361008e60201b60201c565b15801561004057505f8151145b15610077576040517fc28a273c00000000000000000000000000000000000000000000000000000000815260040160405180910390fd5b610087828261009560201b60201c565b50506105a8565b5f5f905090565b6100a48261011960201b60201c565b8173ffffffffffffffffffffffffffffffffffffffff167fbc7cd75a20ee27fd9adebab32041f755214dbc6bffa90cc0225b39da2e5c2d3b60405160405180910390a25f815111156101065761010082826101e860201b60201c565b50610115565b6101146102f760201b60201c565b5b5050565b5f8173ffffffffffffffffffffffffffffffffffffffff163b0361017457806040517f4c9c8ce300000000000000000000000000000000000000000000000000000000815260040161016b919061058f565b60405180910390fd5b806101a67f360894a13ba1a3210667c828492db98dca3e2076cc3735a920a3ca505d382bbc5f1b61033360201b60201c565b5f015f6101000a81548173ffffffffffffffffffffffffffffffffffffffff021916908373ffffffffffffffffffffffffffffffffffffffff16021790555050565b60605f6101fb848461033c60201b60201c565b905080801561023757505f61021461035060201b60201c565b118061023657505f8473ffffffffffffffffffffffffffffffffffffffff163b115b5b156102525761024a61035760201b60201c565b9150506102f1565b801561029557836040517f9996b31500000000000000000000000000000000000000000000000000000000815260040161028c919061058f565b60405180910390fd5b5f6102a461035060201b60201c565b11156102bd576102b861037460201b60201c565b6102ef565b6040517fd6bda27500000000000000000000000000000000000000000000000000000000815260040160405180910390fd5b505b92915050565b5f341115610331576040517fb398979f00000000000000000000000000000000000000000000000000000000815260040160405180910390fd5b565b5f819050919050565b5f5f5f835160208501865af4905092915050565b5f3d905090565b606060405190503d81523d5f602083013e3d602001810160405290565b6040513d5f823e3d81fd5b5f604051905090565b5f5ffd5b5f5ffd5b5f73ffffffffffffffffffffffffffffffffffffffff82169050919050565b5f6103b982610390565b9050919050565b6103c9816103af565b81146103d3575f5ffd5b50565b5f815190506103e4816103c0565b92915050565b5f5ffd5b5f5ffd5b5f601f19601f8301169050919050565b7f4e487b71000000000000000000000000000000000000000000000000000000005f52604160045260245ffd5b610438826103f2565b810181811067ffffffffffffffff8211171561045757610456610402565b5b80604052505050565b5f61046961037f565b9050610475828261042f565b919050565b5f67ffffffffffffffff82111561049457610493610402565b5b61049d826103f2565b9050602081019050919050565b8281835e5f83830152505050565b5f6104ca6104c58461047a565b610460565b9050828152602081018484840111156104e6576104e56103ee565b5b6104f18482856104aa565b509392505050565b5f82601f83011261050d5761050c6103ea565b5b815161051d8482602086016104b8565b91505092915050565b5f5f6040838503121561053c5761053b610388565b5b5f610549858286016103d6565b925050602083015167ffffffffffffffff81111561056a5761056961038c565b5b610576858286016104f9565b9150509250929050565b610589816103af565b82525050565b5f6020820190506105a25f830184610580565b92915050565b60d4806105b45f395ff3fe6080604052600a600c565b005b60186014601a565b6026565b565b5f60216044565b905090565b365f5f375f5f365f845af43d5f5f3e805f81146040573d5ff35b3d5ffd5b5f606e7f360894a13ba1a3210667c828492db98dca3e2076cc3735a920a3ca505d382bbc5f1b6095565b5f015f9054906101000a900473ffffffffffffffffffffffffffffffffffffffff16905090565b5f81905091905056fea2646970667358221220a6f48c8540fb1a224f8c157557a47c2157124ef9fbf9253f572001f87bd86e0864736f6c634300081c0033a26469706673582212203c4387cb79e9d74d779cb582a5ac52ab71a98d1a039f773bf19fdb95ef1e47e664736f6c634300081c003360c06040523073ffffffffffffffffffffffffffffffffffffffff1660809073ffffffffffffffffffffffffffffffffffffffff16815250348015610042575f5ffd5b50604051612d92380380612d928339818101604052810190610064919061025b565b8073ffffffffffffffffffffffffffffffffffffffff1660a08173ffffffffffffffffffffffffffffffffffffffff16815250506100a66100ac60201b60201c565b506102c1565b5f6100bb6101aa60201b60201c565b9050805f0160089054906101000a900460ff1615610105576040517ff92ee8a900000000000000000000000000000000000000000000000000000000815260040160405180910390fd5b67ffffffffffffffff8016815f015f9054906101000a900467ffffffffffffffff1667ffffffffffffffff16146101a75767ffffffffffffffff815f015f6101000a81548167ffffffffffffffff021916908367ffffffffffffffff1602179055507fc7f505b2f371ae2175ee4913f4499e1f2633a7b5936321eed1cdaeb6115181d267ffffffffffffffff60405161019e91906102a8565b60405180910390a15b50565b5f5f6101ba6101c360201b60201c565b90508091505090565b5f7ff0c57e16840df040f15088dc2f81fe391c3923bec73e23a9662efc9c229c6a005f1b905090565b5f5ffd5b5f73ffffffffffffffffffffffffffffffffffffffff82169050919050565b5f610219826101f0565b9050919050565b5f61022a8261020f565b9050919050565b61023a81610220565b8114610244575f5ffd5b50565b5f8151905061025581610231565b92915050565b5f602082840312156102705761026f6101ec565b5b5f61027d84828501610247565b91505092915050565b5f67ffffffffffffffff82169050919050565b6102a281610286565b82525050565b5f6020820190506102bb5f830184610299565b92915050565b60805160a051612aa26102f05f395f6109e501525f818161113f01528181611194015261134e0152612aa25ff3fe608060405260043610610122575f3560e01c80638da5cb5b1161009f578063c399ec8811610063578063c399ec88146103b5578063c4d66de8146103df578063d087d28814610407578063f23a6e6114610431578063f9bfd5f11461046d57610129565b80638da5cb5b146102d3578063ad3cb1cc146102fd578063b0d691fe14610327578063b61d27f614610351578063bc197c811461037957610129565b80634a58db19116100e65780634a58db19146102335780634d44560d1461023d5780634f1ef2861461026557806352d1902d146102815780636e9cabf8146102ab57610129565b806301ffc9a71461012d578063150b7a021461016957806319822f7c146101a557806334fcd5be146101e1578063470219181461020957610129565b3661012957005b5f5ffd5b348015610138575f5ffd5b50610153600480360381019061014e9190611847565b6104a9565b604051610160919061188c565b60405180910390f35b348015610174575f5ffd5b5061018f600480360381019061018a9190611993565b6105e2565b60405161019c9190611a26565b60405180910390f35b3480156101b0575f5ffd5b506101cb60048036038101906101c69190611a95565b6105f6565b6040516101d89190611b10565b60405180910390f35b3480156101ec575f5ffd5b5061020760048036038101906102029190611b7e565b610628565b005b348015610214575f5ffd5b5061021d610758565b60405161022a9190611c39565b60405180910390f35b61023b6107e4565b005b348015610248575f5ffd5b50610263600480360381019061025e9190611c94565b610855565b005b61027f600480360381019061027a9190611dfa565b6108d0565b005b34801561028c575f5ffd5b506102956108ef565b6040516102a29190611e63565b60405180910390f35b3480156102b6575f5ffd5b506102d160048036038101906102cc9190611e7c565b610920565b005b3480156102de575f5ffd5b506102e7610985565b6040516102f49190611ed6565b60405180910390f35b348015610308575f5ffd5b506103116109a9565b60405161031e9190611f41565b60405180910390f35b348015610332575f5ffd5b5061033b6109e2565b6040516103489190611fbc565b60405180910390f35b34801561035c575f5ffd5b5061037760048036038101906103729190611fd5565b610a09565b005b348015610384575f5ffd5b5061039f600480360381019061039a919061209b565b610a78565b6040516103ac9190611a26565b60405180910390f35b3480156103c0575f5ffd5b506103c9610a8f565b6040516103d69190611b10565b60405180910390f35b3480156103ea575f5ffd5b5061040560048036038101906104009190612172565b610b14565b005b348015610412575f5ffd5b5061041b610c95565b6040516104289190611b10565b60405180910390f35b34801561043c575f5ffd5b506104576004803603810190610452919061219d565b610d1c565b6040516104649190611a26565b60405180910390f35b348015610478575f5ffd5b50610493600480360381019061048e9190612233565b610d31565b6040516104a09190611b10565b60405180910390f35b5f7f150b7a02000000000000000000000000000000000000000000000000000000007bffffffffffffffffffffffffffffffffffffffffffffffffffffffff1916827bffffffffffffffffffffffffffffffffffffffffffffffffffffffff1916148061057357507f4e2312e0000000000000000000000000000000000000000000000000000000007bffffffffffffffffffffffffffffffffffffffffffffffffffffffff1916827bffffffffffffffffffffffffffffffffffffffffffffffffffffffff1916145b806105db57507f01ffc9a7000000000000000000000000000000000000000000000000000000007bffffffffffffffffffffffffffffffffffffffffffffffffffffffff1916827bffffffffffffffffffffffffffffffffffffffffffffffffffffffff1916145b9050919050565b5f63150b7a0260e01b905095945050505050565b5f6105ff610d44565b6106098484610dce565b90506106188460200135610e6e565b61062182610e71565b9392505050565b610630610ee5565b5f8282905090505f5f90505b8181101561075257368484838181106106585761065761228d565b5b905060200281019061066a91906122c6565b90505f6106df825f0160208101906106829190612172565b836020013584806040019061069791906122ed565b8080601f0160208091040260200160405190810160405280939291908181526020018383808284375f81840152601f19601f820116905080830192505050505050505a610fe9565b90508061074357600184036106fb576106f6611000565b610742565b826107055f611013565b6040517f5a15467500000000000000000000000000000000000000000000000000000000815260040161073992919061234f565b60405180910390fd5b5b5050808060010191505061063c565b50505050565b60018054610765906123aa565b80601f0160208091040260200160405190810160405280929190818152602001828054610791906123aa565b80156107dc5780601f106107b3576101008083540402835291602001916107dc565b820191905f5260205f20905b8154815290600101906020018083116107bf57829003601f168201915b505050505081565b6107ec6109e2565b73ffffffffffffffffffffffffffffffffffffffff1663b760faf934306040518363ffffffff1660e01b81526004016108259190611ed6565b5f604051808303818588803b15801561083c575f5ffd5b505af115801561084e573d5f5f3e3d5ffd5b5050505050565b61085d61104b565b6108656109e2565b73ffffffffffffffffffffffffffffffffffffffff1663205c287883836040518363ffffffff1660e01b815260040161089f9291906123e9565b5f604051808303815f87803b1580156108b6575f5ffd5b505af11580156108c8573d5f5f3e3d5ffd5b505050505050565b6108d861113d565b6108e182611223565b6108eb828261122e565b5050565b5f6108f861134c565b7f360894a13ba1a3210667c828492db98dca3e2076cc3735a920a3ca505d382bbc5f1b905090565b61092861104b565b610381828290501461096f576040517f08c379a00000000000000000000000000000000000000000000000000000000081526004016109669061245a565b60405180910390fd5b818160019182610980929190612619565b505050565b5f5f9054906101000a900473ffffffffffffffffffffffffffffffffffffffff1681565b6040518060400160405280600581526020017f352e302e3000000000000000000000000000000000000000000000000000000081525081565b5f7f0000000000000000000000000000000000000000000000000000000000000000905090565b610a11610ee5565b5f610a61858585858080601f0160208091040260200160405190810160405280939291908181526020018383808284375f81840152601f19601f820116905080830192505050505050505a610fe9565b905080610a7157610a70611000565b5b5050505050565b5f63bc197c8160e01b905098975050505050505050565b5f610a986109e2565b73ffffffffffffffffffffffffffffffffffffffff166370a08231306040518263ffffffff1660e01b8152600401610ad09190611ed6565b602060405180830381865afa158015610aeb573d5f5f3e3d5ffd5b505050506040513d601f19601f82011682018060405250810190610b0f91906126fa565b905090565b5f610b1d6113d3565b90505f815f0160089054906101000a900460ff161590505f825f015f9054906101000a900467ffffffffffffffff1690505f5f8267ffffffffffffffff16148015610b655750825b90505f60018367ffffffffffffffff16148015610b9857505f3073ffffffffffffffffffffffffffffffffffffffff163b145b905081158015610ba6575080155b15610bdd576040517ff92ee8a900000000000000000000000000000000000000000000000000000000815260040160405180910390fd5b6001855f015f6101000a81548167ffffffffffffffff021916908367ffffffffffffffff1602179055508315610c2a576001855f0160086101000a81548160ff0219169083151502179055505b610c33866113e6565b8315610c8d575f855f0160086101000a81548160ff0219169083151502179055507fc7f505b2f371ae2175ee4913f4499e1f2633a7b5936321eed1cdaeb6115181d26001604051610c849190612771565b60405180910390a15b505050505050565b5f610c9e6109e2565b73ffffffffffffffffffffffffffffffffffffffff166335567e1a305f6040518363ffffffff1660e01b8152600401610cd89291906127e6565b602060405180830381865afa158015610cf3573d5f5f3e3d5ffd5b505050506040513d601f19601f82011682018060405250810190610d1791906126fa565b905090565b5f63f23a6e6160e01b90509695505050505050565b5f610d3c8383610dce565b905092915050565b610d4c6109e2565b73ffffffffffffffffffffffffffffffffffffffff163373ffffffffffffffffffffffffffffffffffffffff16143330610d846109e2565b909192610dc9576040517ffe34a6d3000000000000000000000000000000000000000000000000000000008152600401610dc09392919061280d565b60405180910390fd5b505050565b5f61029a83806101000190610de391906122ed565b905014610df35760019050610e68565b5f83806101000190610e0591906122ed565b5f90602092610e169392919061284a565b90610e219190612884565b90505f836001604051602001610e3892919061298c565b604051602081830303815290604052805190602001209050808214610e6257600192505050610e68565b5f925050505b92915050565b50565b5f8114610ee2575f3373ffffffffffffffffffffffffffffffffffffffff1682604051610e9d906129d6565b5f6040518083038185875af1925050503d805f8114610ed7576040519150601f19603f3d011682016040523d82523d5f602084013e610edc565b606091505b50509050505b50565b610eed6109e2565b73ffffffffffffffffffffffffffffffffffffffff163373ffffffffffffffffffffffffffffffffffffffff161480610f7157505f5f9054906101000a900473ffffffffffffffffffffffffffffffffffffffff1673ffffffffffffffffffffffffffffffffffffffff163373ffffffffffffffffffffffffffffffffffffffff16145b3330610f7b6109e2565b5f5f9054906101000a900473ffffffffffffffffffffffffffffffffffffffff1690919293610fe3576040517f62018a31000000000000000000000000000000000000000000000000000000008152600401610fda94939291906129ea565b60405180910390fd5b50505050565b5f5f5f845160208601878987f19050949350505050565b61101161100c5f611013565b6114a9565b565b60603d5f83111561102b578281111561102a578290505b5b604051602082018101604052818152815f602083013e8092505050919050565b5f5f9054906101000a900473ffffffffffffffffffffffffffffffffffffffff1673ffffffffffffffffffffffffffffffffffffffff163373ffffffffffffffffffffffffffffffffffffffff1614806110d057503073ffffffffffffffffffffffffffffffffffffffff163373ffffffffffffffffffffffffffffffffffffffff16145b33305f5f9054906101000a900473ffffffffffffffffffffffffffffffffffffffff16909192611138576040517fcbce04d800000000000000000000000000000000000000000000000000000000815260040161112f9392919061280d565b60405180910390fd5b505050565b7f000000000000000000000000000000000000000000000000000000000000000073ffffffffffffffffffffffffffffffffffffffff163073ffffffffffffffffffffffffffffffffffffffff1614806111ea57507f000000000000000000000000000000000000000000000000000000000000000073ffffffffffffffffffffffffffffffffffffffff166111d16114b1565b73ffffffffffffffffffffffffffffffffffffffff1614155b15611221576040517fe07c8dba00000000000000000000000000000000000000000000000000000000815260040160405180910390fd5b565b61122b61104b565b50565b8173ffffffffffffffffffffffffffffffffffffffff166352d1902d6040518163ffffffff1660e01b8152600401602060405180830381865afa92505050801561129657506040513d601f19601f820116820180604052508101906112939190612a41565b60015b6112d757816040517f4c9c8ce30000000000000000000000000000000000000000000000000000000081526004016112ce9190611ed6565b60405180910390fd5b7f360894a13ba1a3210667c828492db98dca3e2076cc3735a920a3ca505d382bbc5f1b811461133d57806040517faa1d49a40000000000000000000000000000000000000000000000000000000081526004016113349190611e63565b60405180910390fd5b6113478383611504565b505050565b7f000000000000000000000000000000000000000000000000000000000000000073ffffffffffffffffffffffffffffffffffffffff163073ffffffffffffffffffffffffffffffffffffffff16146113d1576040517fe07c8dba00000000000000000000000000000000000000000000000000000000815260040160405180910390fd5b565b5f5f6113dd611576565b90508091505090565b805f5f6101000a81548173ffffffffffffffffffffffffffffffffffffffff021916908373ffffffffffffffffffffffffffffffffffffffff1602179055505f5f9054906101000a900473ffffffffffffffffffffffffffffffffffffffff1673ffffffffffffffffffffffffffffffffffffffff166114646109e2565b73ffffffffffffffffffffffffffffffffffffffff167f47e55c76e7a6f1fd8996a1da8008c1ea29699cca35e7bcd057f2dec313b6e5de60405160405180910390a350565b805160208201fd5b5f6114dd7f360894a13ba1a3210667c828492db98dca3e2076cc3735a920a3ca505d382bbc5f1b61159f565b5f015f9054906101000a900473ffffffffffffffffffffffffffffffffffffffff16905090565b61150d826115a8565b8173ffffffffffffffffffffffffffffffffffffffff167fbc7cd75a20ee27fd9adebab32041f755214dbc6bffa90cc0225b39da2e5c2d3b60405160405180910390a25f81511115611569576115638282611671565b50611572565b611571611762565b5b5050565b5f7ff0c57e16840df040f15088dc2f81fe391c3923bec73e23a9662efc9c229c6a005f1b905090565b5f819050919050565b5f8173ffffffffffffffffffffffffffffffffffffffff163b0361160357806040517f4c9c8ce30000000000000000000000000000000000000000000000000000000081526004016115fa9190611ed6565b60405180910390fd5b8061162f7f360894a13ba1a3210667c828492db98dca3e2076cc3735a920a3ca505d382bbc5f1b61159f565b5f015f6101000a81548173ffffffffffffffffffffffffffffffffffffffff021916908373ffffffffffffffffffffffffffffffffffffffff16021790555050565b60605f61167e848461179e565b90508080156116b457505f6116916117b2565b11806116b357505f8473ffffffffffffffffffffffffffffffffffffffff163b115b5b156116c9576116c16117b9565b91505061175c565b801561170c57836040517f9996b3150000000000000000000000000000000000000000000000000000000081526004016117039190611ed6565b60405180910390fd5b5f6117156117b2565b1115611728576117236117d6565b61175a565b6040517fd6bda27500000000000000000000000000000000000000000000000000000000815260040160405180910390fd5b505b92915050565b5f34111561179c576040517fb398979f00000000000000000000000000000000000000000000000000000000815260040160405180910390fd5b565b5f5f5f835160208501865af4905092915050565b5f3d905090565b606060405190503d81523d5f602083013e3d602001810160405290565b6040513d5f823e3d81fd5b5f604051905090565b5f5ffd5b5f5ffd5b5f7fffffffff0000000000000000000000000000000000000000000000000000000082169050919050565b611826816117f2565b8114611830575f5ffd5b50565b5f813590506118418161181d565b92915050565b5f6020828403121561185c5761185b6117ea565b5b5f61186984828501611833565b91505092915050565b5f8115159050919050565b61188681611872565b82525050565b5f60208201905061189f5f83018461187d565b92915050565b5f73ffffffffffffffffffffffffffffffffffffffff82169050919050565b5f6118ce826118a5565b9050919050565b6118de816118c4565b81146118e8575f5ffd5b50565b5f813590506118f9816118d5565b92915050565b5f819050919050565b611911816118ff565b811461191b575f5ffd5b50565b5f8135905061192c81611908565b92915050565b5f5ffd5b5f5ffd5b5f5ffd5b5f5f83601f84011261195357611952611932565b5b8235905067ffffffffffffffff8111156119705761196f611936565b5b60208301915083600182028301111561198c5761198b61193a565b5b9250929050565b5f5f5f5f5f608086880312156119ac576119ab6117ea565b5b5f6119b9888289016118eb565b95505060206119ca888289016118eb565b94505060406119db8882890161191e565b935050606086013567ffffffffffffffff8111156119fc576119fb6117ee565b5b611a088882890161193e565b92509250509295509295909350565b611a20816117f2565b82525050565b5f602082019050611a395f830184611a17565b92915050565b5f5ffd5b5f6101208284031215611a5957611a58611a3f565b5b81905092915050565b5f819050919050565b611a7481611a62565b8114611a7e575f5ffd5b50565b5f81359050611a8f81611a6b565b92915050565b5f5f5f60608486031215611aac57611aab6117ea565b5b5f84013567ffffffffffffffff811115611ac957611ac86117ee565b5b611ad586828701611a43565b9350506020611ae686828701611a81565b9250506040611af78682870161191e565b9150509250925092565b611b0a816118ff565b82525050565b5f602082019050611b235f830184611b01565b92915050565b5f5f83601f840112611b3e57611b3d611932565b5b8235905067ffffffffffffffff811115611b5b57611b5a611936565b5b602083019150836020820283011115611b7757611b7661193a565b5b9250929050565b5f5f60208385031215611b9457611b936117ea565b5b5f83013567ffffffffffffffff811115611bb157611bb06117ee565b5b611bbd85828601611b29565b92509250509250929050565b5f81519050919050565b5f82825260208201905092915050565b8281835e5f83830152505050565b5f601f19601f8301169050919050565b5f611c0b82611bc9565b611c158185611bd3565b9350611c25818560208601611be3565b611c2e81611bf1565b840191505092915050565b5f6020820190508181035f830152611c518184611c01565b905092915050565b5f611c63826118a5565b9050919050565b611c7381611c59565b8114611c7d575f5ffd5b50565b5f81359050611c8e81611c6a565b92915050565b5f5f60408385031215611caa57611ca96117ea565b5b5f611cb785828601611c80565b9250506020611cc88582860161191e565b9150509250929050565b5f5ffd5b7f4e487b71000000000000000000000000000000000000000000000000000000005f52604160045260245ffd5b611d0c82611bf1565b810181811067ffffffffffffffff82111715611d2b57611d2a611cd6565b5b80604052505050565b5f611d3d6117e1565b9050611d498282611d03565b919050565b5f67ffffffffffffffff821115611d6857611d67611cd6565b5b611d7182611bf1565b9050602081019050919050565b828183375f83830152505050565b5f611d9e611d9984611d4e565b611d34565b905082815260208101848484011115611dba57611db9611cd2565b5b611dc5848285611d7e565b509392505050565b5f82601f830112611de157611de0611932565b5b8135611df1848260208601611d8c565b91505092915050565b5f5f60408385031215611e1057611e0f6117ea565b5b5f611e1d858286016118eb565b925050602083013567ffffffffffffffff811115611e3e57611e3d6117ee565b5b611e4a85828601611dcd565b9150509250929050565b611e5d81611a62565b82525050565b5f602082019050611e765f830184611e54565b92915050565b5f5f60208385031215611e9257611e916117ea565b5b5f83013567ffffffffffffffff811115611eaf57611eae6117ee565b5b611ebb8582860161193e565b92509250509250929050565b611ed0816118c4565b82525050565b5f602082019050611ee95f830184611ec7565b92915050565b5f81519050919050565b5f82825260208201905092915050565b5f611f1382611eef565b611f1d8185611ef9565b9350611f2d818560208601611be3565b611f3681611bf1565b840191505092915050565b5f6020820190508181035f830152611f598184611f09565b905092915050565b5f819050919050565b5f611f84611f7f611f7a846118a5565b611f61565b6118a5565b9050919050565b5f611f9582611f6a565b9050919050565b5f611fa682611f8b565b9050919050565b611fb681611f9c565b82525050565b5f602082019050611fcf5f830184611fad565b92915050565b5f5f5f5f60608587031215611fed57611fec6117ea565b5b5f611ffa878288016118eb565b945050602061200b8782880161191e565b935050604085013567ffffffffffffffff81111561202c5761202b6117ee565b5b6120388782880161193e565b925092505092959194509250565b5f5f83601f84011261205b5761205a611932565b5b8235905067ffffffffffffffff81111561207857612077611936565b5b6020830191508360208202830111156120945761209361193a565b5b9250929050565b5f5f5f5f5f5f5f5f60a0898b0312156120b7576120b66117ea565b5b5f6120c48b828c016118eb565b98505060206120d58b828c016118eb565b975050604089013567ffffffffffffffff8111156120f6576120f56117ee565b5b6121028b828c01612046565b9650965050606089013567ffffffffffffffff811115612125576121246117ee565b5b6121318b828c01612046565b9450945050608089013567ffffffffffffffff811115612154576121536117ee565b5b6121608b828c0161193e565b92509250509295985092959890939650565b5f60208284031215612187576121866117ea565b5b5f612194848285016118eb565b91505092915050565b5f5f5f5f5f5f60a087890312156121b7576121b66117ea565b5b5f6121c489828a016118eb565b96505060206121d589828a016118eb565b95505060406121e689828a0161191e565b94505060606121f789828a0161191e565b935050608087013567ffffffffffffffff811115612218576122176117ee565b5b61222489828a0161193e565b92509250509295509295509295565b5f5f60408385031215612249576122486117ea565b5b5f83013567ffffffffffffffff811115612266576122656117ee565b5b61227285828601611a43565b925050602061228385828601611a81565b9150509250929050565b7f4e487b71000000000000000000000000000000000000000000000000000000005f52603260045260245ffd5b5f5ffd5b5f5ffd5b5f5ffd5b5f823560016060038336030381126122e1576122e06122ba565b5b80830191505092915050565b5f5f83356001602003843603038112612309576123086122ba565b5b80840192508235915067ffffffffffffffff82111561232b5761232a6122be565b5b602083019250600182023603831315612347576123466122c2565b5b509250929050565b5f6040820190506123625f830185611b01565b81810360208301526123748184611c01565b90509392505050565b7f4e487b71000000000000000000000000000000000000000000000000000000005f52602260045260245ffd5b5f60028204905060018216806123c157607f821691505b6020821081036123d4576123d361237d565b5b50919050565b6123e381611c59565b82525050565b5f6040820190506123fc5f8301856123da565b6124096020830184611b01565b9392505050565b7f496e76616c69642046616c636f6e207075626c6963206b6579206c656e6774685f82015250565b5f612444602083611ef9565b915061244f82612410565b602082019050919050565b5f6020820190508181035f83015261247181612438565b9050919050565b5f82905092915050565b5f819050815f5260205f209050919050565b5f6020601f8301049050919050565b5f82821b905092915050565b5f600883026124de7fffffffffffffffffffffffffffffffffffffffffffffffffffffffffffffffff826124a3565b6124e886836124a3565b95508019841693508086168417925050509392505050565b5f61251a612515612510846118ff565b611f61565b6118ff565b9050919050565b5f819050919050565b61253383612500565b61254761253f82612521565b8484546124af565b825550505050565b5f5f905090565b61255e61254f565b61256981848461252a565b505050565b5b8181101561258c576125815f82612556565b60018101905061256f565b5050565b601f8211156125d1576125a281612482565b6125ab84612494565b810160208510156125ba578190505b6125ce6125c685612494565b83018261256e565b50505b505050565b5f82821c905092915050565b5f6125f15f19846008026125d6565b1980831691505092915050565b5f61260983836125e2565b9150826002028217905092915050565b6126238383612478565b67ffffffffffffffff81111561263c5761263b611cd6565b5b61264682546123aa565b612651828285612590565b5f601f83116001811461267e575f841561266c578287013590505b61267685826125fe565b8655506126dd565b601f19841661268c86612482565b5f5b828110156126b35784890135825560018201915060208501945060208101905061268e565b868310156126d057848901356126cc601f8916826125e2565b8355505b6001600288020188555050505b50505050505050565b5f815190506126f481611908565b92915050565b5f6020828403121561270f5761270e6117ea565b5b5f61271c848285016126e6565b91505092915050565b5f819050919050565b5f67ffffffffffffffff82169050919050565b5f61275b61275661275184612725565b611f61565b61272e565b9050919050565b61276b81612741565b82525050565b5f6020820190506127845f830184612762565b92915050565b5f819050919050565b5f77ffffffffffffffffffffffffffffffffffffffffffffffff82169050919050565b5f6127d06127cb6127c68461278a565b611f61565b612793565b9050919050565b6127e0816127b6565b82525050565b5f6040820190506127f95f830185611ec7565b61280660208301846127d7565b9392505050565b5f6060820190506128205f830186611ec7565b61282d6020830185611ec7565b61283a6040830184611ec7565b949350505050565b5f5ffd5b5f5ffd5b5f5f8585111561285d5761285c612842565b5b8386111561286e5761286d612846565b5b6001850283019150848603905094509492505050565b5f61288f8383612478565b8261289a8135611a62565b925060208210156128da576128d57fffffffffffffffffffffffffffffffffffffffffffffffffffffffffffffffff836020036008026124a3565b831692505b505092915050565b5f819050919050565b6128fc6128f782611a62565b6128e2565b82525050565b5f81905092915050565b5f8154612918816123aa565b6129228186612902565b9450600182165f811461293c576001811461295157612983565b60ff1983168652811515820286019350612983565b61295a85612482565b5f5b8381101561297b5781548189015260018201915060208101905061295c565b838801955050505b50505092915050565b5f61299782856128eb565b6020820191506129a7828461290c565b91508190509392505050565b50565b5f6129c15f83612902565b91506129cc826129b3565b5f82019050919050565b5f6129e0826129b6565b9150819050919050565b5f6080820190506129fd5f830187611ec7565b612a0a6020830186611ec7565b612a176040830185611ec7565b612a246060830184611ec7565b95945050505050565b5f81519050612a3b81611a6b565b92915050565b5f60208284031215612a5657612a556117ea565b5b5f612a6384828501612a2d565b9150509291505056fea26469706673582212206c08d39abb2a6ed36019902b4df3e8f2b5341f1e58f98c13633906f0e612ebb264736f6c634300081c0033",
  "linkReferences": {},
  "deployedLinkReferences": {},
  "immutableReferences": {
    "8186": [
      {
        "length": 32,
        "start": 272
      },
      {
        "length": 32,
        "start": 556
      },
      {
        "length": 32,
        "start": 782
      }
    ],
    "8189": [
      {
        "length": 32,
        "start": 236
      },
      {
        "length": 32,
        "start": 309
      },
      {
        "length": 32,
        "start": 390
      }
    ]
  },
  "inputSourceName": "project/contracts/accounts/SimpleAccountFactory.sol",
  "buildInfoId": "solc-0_8_28-20b6e7690ee6d63ae0ed5b7ccfabe5432346d63e"
}