{
  "_format": "hh3-artifact-1",
  "contractName": "SenderCreator",
  "sourceName": "contracts/core/SenderCreator.sol",
  "abi": [
    {
      "inputs": [],
      "stateMutability": "nonpayable",
      "type": "constructor"
    },
    {
      "inputs": [
        {
          "internalType": "uint256",
          "name": "opIndex",
          "type": "uint256"
        },
        {
          "internalType": "string",
          "name": "reason",
          "type": "string"
        },
        {
          "internalType": "bytes",
          "name": "inner",
          "type": "bytes"
        }
      ],
      "name": "FailedOpWithRevert",
      "type": "error"
    },
    {
      "inputs": [
        {
          "internalType": "address",
          "name": "msgSender",
          "type": "address"
        },
        {
          "internalType": "address",
          "name": "entity",
          "type": "address"
        },
        {
          "internalType": "address",
          "name": "entryPoint",
          "type": "address"
        }
      ],
      "name": "NotFromEntryPoint",
      "type": "error"
    },
    {
      "inputs": [
        {
          "internalType": "bytes",
          "name": "initCode",
          "type": "bytes"
        }
      ],
      "name": "createSender",
      "outputs": [
        {
          "internalType": "address",
          "name": "sender",
          "type": "address"
        }
      ],
      "stateMutability": "nonpayable",
      "type": "function"
    },
    {
      "inputs": [],
      "name": "entryPoint",
      "outputs": [
        {
          "internalType": "address",
          "name": "",
          "type": "address"
        }
      ],
      "stateMutability": "view",
      "type": "function"
    },
    {
      "inputs": [
        {
          "internalType": "address",
          "name": "sender",
          "type": "address"
        },
        {
          "internalType": "bytes",
          "name": "initCallData",
          "type": "bytes"
        }
      ],
      "name": "initEip7702Sender",
      "outputs": [],
      "stateMutability": "nonpayable",
      "type": "function"
    }
  ],
  "bytecode": "0x60a060405234801561000f575f5ffd5b503373ffffffffffffffffffffffffffffffffffffffff1660808173ffffffffffffffffffffffffffffffffffffffff16815250506080516108e76100775f395f818160b0015281816101010152818161020a0152818161022e015261027f01526108e75ff3fe608060405234801561000f575f5ffd5b506004361061003f575f3560e01c8063570e1a3614610043578063b0d691fe14610073578063c09ad0d914610091575b5f5ffd5b61005d600480360381019061005891906103f6565b6100ad565b60405161006a9190610480565b60405180910390f35b61007b610208565b6040516100889190610480565b60405180910390f35b6100ab60048036038101906100a691906105fb565b61022c565b005b5f7f000000000000000000000000000000000000000000000000000000000000000073ffffffffffffffffffffffffffffffffffffffff163373ffffffffffffffffffffffffffffffffffffffff161433307f0000000000000000000000000000000000000000000000000000000000000000909192610165576040517ffe34a6d300000000000000000000000000000000000000000000000000000000815260040161015c93929190610655565b60405180910390fd5b5050505f83835f9060149261017c93929190610692565b90610187919061070d565b60601c90505f848460149080926101a093929190610692565b8080601f0160208091040260200160405190810160405280939291908181526020018383808284375f81840152601f19601f8201169050808301925050505050505090505f60205f8351602085015f875af1905080156101ff575f5193505b50505092915050565b7f000000000000000000000000000000000000000000000000000000000000000081565b7f000000000000000000000000000000000000000000000000000000000000000073ffffffffffffffffffffffffffffffffffffffff163373ffffffffffffffffffffffffffffffffffffffff161433307f00000000000000000000000000000000000000000000000000000000000000009091926102e3576040517ffe34a6d30000000000000000000000000000000000000000000000000000000081526004016102da93929190610655565b60405180910390fd5b5050505f5f5f8351602085015f875af1905080610347575f61030661080061034c565b90505f816040517f65c8fd4d00000000000000000000000000000000000000000000000000000000815260040161033e929190610870565b60405180910390fd5b505050565b60603d5f8311156103645782811115610363578290505b5b604051602082018101604052818152815f602083013e8092505050919050565b5f604051905090565b5f5ffd5b5f5ffd5b5f5ffd5b5f5ffd5b5f5ffd5b5f5f83601f8401126103b6576103b5610395565b5b8235905067ffffffffffffffff8111156103d3576103d2610399565b5b6020830191508360018202830111156103ef576103ee61039d565b5b9250929050565b5f5f6020838503121561040c5761040b61038d565b5b5f83013567ffffffffffffffff81111561042957610428610391565b5b610435858286016103a1565b92509250509250929050565b5f73ffffffffffffffffffffffffffffffffffffffff82169050919050565b5f61046a82610441565b9050919050565b61047a81610460565b82525050565b5f6020820190506104935f830184610471565b92915050565b6104a281610460565b81146104ac575f5ffd5b50565b5f813590506104bd81610499565b92915050565b5f5ffd5b5f601f19601f8301169050919050565b7f4e487b71000000000000000000000000000000000000000000000000000000005f52604160045260245ffd5b61050d826104c7565b810181811067ffffffffffffffff8211171561052c5761052b6104d7565b5b80604052505050565b5f61053e610384565b905061054a8282610504565b919050565b5f67ffffffffffffffff821115610569576105686104d7565b5b610572826104c7565b9050602081019050919050565b828183375f83830152505050565b5f61059f61059a8461054f565b610535565b9050828152602081018484840111156105bb576105ba6104c3565b5b6105c684828561057f565b509392505050565b5f82601f8301126105e2576105e1610395565b5b81356105f284826020860161058d565b91505092915050565b5f5f604083850312156106115761061061038d565b5b5f61061e858286016104af565b925050602083013567ffffffffffffffff81111561063f5761063e610391565b5b61064b858286016105ce565b9150509250929050565b5f6060820190506106685f830186610471565b6106756020830185610471565b6106826040830184610471565b949350505050565b5f5ffd5b5f5ffd5b5f5f858511156106a5576106a461068a565b5b838611156106b6576106b561068e565b5b6001850283019150848603905094509492505050565b5f82905092915050565b5f7fffffffffffffffffffffffffffffffffffffffff00000000000000000000000082169050919050565b5f82821b905092915050565b5f61071883836106cc565b8261072381356106d6565b925060148210156107635761075e7fffffffffffffffffffffffffffffffffffffffff00000000000000000000000083601403600802610701565b831692505b505092915050565b5f819050919050565b5f819050919050565b5f819050919050565b5f6107a061079b6107968461076b565b61077d565b610774565b9050919050565b6107b081610786565b82525050565b5f82825260208201905092915050565b7f4141313320454950373730322073656e64657220696e6974206661696c6564005f82015250565b5f6107fa601f836107b6565b9150610805826107c6565b602082019050919050565b5f81519050919050565b5f82825260208201905092915050565b8281835e5f83830152505050565b5f61084282610810565b61084c818561081a565b935061085c81856020860161082a565b610865816104c7565b840191505092915050565b5f6060820190506108835f8301856107a7565b8181036020830152610894816107ee565b905081810360408301526108a88184610838565b9050939250505056fea2646970667358221220198b33cb9f8e927139026c7f35489bf53908c202421b38d555ed75f1bcd5461564736f6c634300081c0033",
  "linkReferences": {},
  "deployedLinkReferences": {},
  "immutableReferences": {
    "14079": [
      {
        "length": 32,
        "start": 176
      },
      {
        "length": 32,
        "start": 257
      },
      {
        "length": 32,
        "start": 522
      },
      {
        "length": 32,
        "start": 558
      },
      {
        "length": 32,
        "start": 639
      }
    ]
  },
  "inputSourceName": "project/contracts/core/SenderCreator.sol",
  "buildInfoId": "solc-0_8_28-eef5382d3098c5533804fbe1ffed02d0a8599b6c"
}