{
  "_format": "hh3-artifact-1",
  "contractName": "UserOperationLib",
  "sourceName": "contracts/core/UserOperationLib.sol",
  "abi": [
    {
      "inputs": [
        {
          "internalType": "uint256",
          "name": "dataLength",
          "type": "uint256"
        },
        {
          "internalType": "uint256",
          "name": "pmSignatureLength",
          "type": "uint256"
        }
      ],
      "name": "InvalidPaymasterSignatureLength",
      "type": "error"
    },
    {
      "inputs": [],
      "name": "PAYMASTER_DATA_OFFSET",
      "outputs": [
        {
          "internalType": "uint256",
          "name": "",
          "type": "uint256"
        }
      ],
      "stateMutability": "view",
      "type": "function"
    },
    {
      "inputs": [],
      "name": "PAYMASTER_POSTOP_GAS_OFFSET",
      "outputs": [
        {
          "internalType": "uint256",
          "name": "",
          "type": "uint256"
        }
      ],
      "stateMutability": "view",
      "type": "function"
    },
    {
      "inputs": [],
      "name": "PAYMASTER_VALIDATION_GAS_OFFSET",
      "outputs": [
        {
          "internalType": "uint256",
          "name": "",
          "type": "uint256"
        }
      ],
      "stateMutability": "view",
      "type": "function"
    }
  ],
  "bytecode": "0x61010a61004d600b8282823980515f1a6073146041577f4e487b71000000000000000000000000000000000000000000000000000000005f525f60045260245ffd5b305f52607381538281f3fe73000000000000000000000000000000000000000030146080604052600436106046575f3560e01c806325093e1b14604a578063b29a8ff4146064578063ede3150214607e575b5f5ffd5b60506098565b604051605b919060bd565b60405180910390f35b606a609d565b6040516075919060bd565b60405180910390f35b608460a2565b604051608f919060bd565b60405180910390f35b602481565b601481565b603481565b5f819050919050565b60b78160a7565b82525050565b5f60208201905060ce5f83018460b0565b9291505056fea2646970667358221220d3dedaa31ef412e3009593cf6db90f1b0b9c9e739d0b75a6b3a6b7e364fae3d964736f6c634300081c0033",
  "linkReferences": {},
  "deployedLinkReferences": {},
  "immutableReferences": {},
  "inputSourceName": "project/contracts/core/UserOperationLib.sol",
  "buildInfoId": "solc-0_8_28-3f4ee4630f9d01cfee2851f8451d28cd4ac21008"
}