{
  "_format": "hh3-artifact-1",
  "contractName": "Simple7702Account",
  "sourceName": "contracts/accounts/Simple7702Account.sol",
  "abi": [
    {
      "inputs": [
        {
          "internalType": "contract IEntryPoint",
          "name": "anEntryPoint",
          "type": "address"
        }
      ],
      "stateMutability": "nonpayable",
      "type": "constructor"
    },
    {
      "inputs": [],
      "name": "ECDSAInvalidSignature",
      "type": "error"
    },
    {
      "inputs": [
        {
          "internalType": "uint256",
          "name": "length",
          "type": "uint256"
        }
      ],
      "name": "ECDSAInvalidSignatureLength",
      "type": "error"
    },
    {
      "inputs": [
        {
          "internalType": "bytes32",
          "name": "s",
          "type": "bytes32"
        }
      ],
      "name": "ECDSAInvalidSignatureS",
      "type": "error"
    },
    {
      "inputs": [
        {
          "internalType": "uint256",
          "name": "index",
          "type": "uint256"
        },
        {
          "internalType": "bytes",
          "name": "error",
          "type": "bytes"
        }
      ],
      "name": "ExecuteError",
      "type": "error"
    },
    {
      "inputs": [
        {
          "internalType": "address",
          "name": "msgSender",
          "type": "address"
        },
        {
          "internalType": "address",
          "name": "entity",
          "type": "address"
        },
        {
          "internalType": "address",
          "name": "entryPoint",
          "type": "address"
        }
      ],
      "name": "NotFromEntryPoint",
      "type": "error"
    },
    {
      "stateMutability": "payable",
      "type": "fallback"
    },
    {
      "inputs": [],
      "name": "entryPoint",
      "outputs": [
        {
          "internalType": "contract IEntryPoint",
          "name": "",
          "type": "address"
        }
      ],
      "stateMutability": "view",
      "type": "function"
    },
    {
      "inputs": [
        {
          "internalType": "address",
          "name": "target",
          "type": "address"
        },
        {
          "internalType": "uint256",
          "name": "value",
          "type": "uint256"
        },
        {
          "internalType": "bytes",
          "name": "data",
          "type": "bytes"
        }
      ],
      "name": "execute",
      "outputs": [],
      "stateMutability": "nonpayable",
      "type": "function"
    },
    {
      "inputs": [
        {
          "components": [
            {
              "internalType": "address",
              "name": "target",
              "type": "address"
            },
            {
              "internalType": "uint256",
              "name": "value",
              "type": "uint256"
            },
            {
              "internalType": "bytes",
              "name": "data",
              "type": "bytes"
            }
          ],
          "internalType": "struct BaseAccount.Call[]",
          "name": "calls",
          "type": "tuple[]"
        }
      ],
      "name": "executeBatch",
      "outputs": [],
      "stateMutability": "nonpayable",
      "type": "function"
    },
    {
      "inputs": [],
      "name": "getNonce",
      "outputs": [
        {
          "internalType": "uint256",
          "name": "",
          "type": "uint256"
        }
      ],
      "stateMutability": "view",
      "type": "function"
    },
    {
      "inputs": [
        {
          "internalType": "bytes32",
          "name": "hash",
          "type": "bytes32"
        },
        {
          "internalType": "bytes",
          "name": "signature",
          "type": "bytes"
        }
      ],
      "name": "isValidSignature",
      "outputs": [
        {
          "internalType": "bytes4",
          "name": "magicValue",
          "type": "bytes4"
        }
      ],
      "stateMutability": "view",
      "type": "function"
    },
    {
      "inputs": [
        {
          "internalType": "address",
          "name": "",
          "type": "address"
        },
        {
          "internalType": "address",
          "name": "",
          "type": "address"
        },
        {
          "internalType": "uint256[]",
          "name": "",
          "type": "uint256[]"
        },
        {
          "internalType": "uint256[]",
          "name": "",
          "type": "uint256[]"
        },
        {
          "internalType": "bytes",
          "name": "",
          "type": "bytes"
        }
      ],
      "name": "onERC1155BatchReceived",
      "outputs": [
        {
          "internalType": "bytes4",
          "name": "",
          "type": "bytes4"
        }
      ],
      "stateMutability": "nonpayable",
      "type": "function"
    },
    {
      "inputs": [
        {
          "internalType": "address",
          "name": "",
          "type": "address"
        },
        {
          "internalType": "address",
          "name": "",
          "type": "address"
        },
        {
          "internalType": "uint256",
          "name": "",
          "type": "uint256"
        },
        {
          "internalType": "uint256",
          "name": "",
          "type": "uint256"
        },
        {
          "internalType": "bytes",
          "name": "",
          "type": "bytes"
        }
      ],
      "name": "onERC1155Received",
      "outputs": [
        {
          "internalType": "bytes4",
          "name": "",
          "type": "bytes4"
        }
      ],
      "stateMutability": "nonpayable",
      "type": "function"
    },
    {
      "inputs": [
        {
          "internalType": "address",
          "name": "",
          "type": "address"
        },
        {
          "internalType": "address",
          "name": "",
          "type": "address"
        },
        {
          "internalType": "uint256",
          "name": "",
          "type": "uint256"
        },
        {
          "internalType": "bytes",
          "name": "",
          "type": "bytes"
        }
      ],
      "name": "onERC721Received",
      "outputs": [
        {
          "internalType": "bytes4",
          "name": "",
          "type": "bytes4"
        }
      ],
      "stateMutability": "nonpayable",
      "type": "function"
    },
    {
      "inputs": [
        {
          "internalType": "bytes4",
          "name": "id",
          "type": "bytes4"
        }
      ],
      "name": "supportsInterface",
      "outputs": [
        {
          "internalType": "bool",
          "name": "",
          "type": "bool"
        }
      ],
      "stateMutability": "pure",
      "type": "function"
    },
    {
      "inputs": [
        {
          "components": [
            {
              "internalType": "address",
              "name": "sender",
              "type": "address"
            },
            {
              "internalType": "uint256",
              "name": "nonce",
              "type": "uint256"
            },
            {
              "internalType": "bytes",
              "name": "initCode",
              "type": "bytes"
            },
            {
              "internalType": "bytes",
              "name": "callData",
              "type": "bytes"
            },
            {
              "internalType": "bytes32",
              "name": "accountGasLimits",
              "type": "bytes32"
            },
            {
              "internalType": "uint256",
              "name": "preVerificationGas",
              "type": "uint256"
            },
            {
              "internalType": "bytes32",
              "name": "gasFees",
              "type": "bytes32"
            },
            {
              "internalType": "bytes",
              "name": "paymasterAndData",
              "type": "bytes"
            },
            {
              "internalType": "bytes",
              "name": "signature",
              "type": "bytes"
            }
          ],
          "internalType": "struct PackedUserOperation",
          "name": "userOp",
          "type": "tuple"
        },
        {
          "internalType": "bytes32",
          "name": "userOpHash",
          "type": "bytes32"
        },
        {
          "internalType": "uint256",
          "name": "missingAccountFunds",
          "type": "uint256"
        }
      ],
      "name": "validateUserOp",
      "outputs": [
        {
          "internalType": "uint256",
          "name": "validationData",
          "type": "uint256"
        }
      ],
      "stateMutability": "nonpayable",
      "type": "function"
    },
    {
      "stateMutability": "payable",
      "type": "receive"
    }
  ],
  "bytecode": "0x60a060405234801561000f575f5ffd5b50604051611a7a380380611a7a833981810160405281019061003191906100da565b8073ffffffffffffffffffffffffffffffffffffffff1660808173ffffffffffffffffffffffffffffffffffffffff168152505050610105565b5f5ffd5b5f73ffffffffffffffffffffffffffffffffffffffff82169050919050565b5f6100988261006f565b9050919050565b5f6100a98261008e565b9050919050565b6100b98161009f565b81146100c3575f5ffd5b50565b5f815190506100d4816100b0565b92915050565b5f602082840312156100ef576100ee61006b565b5b5f6100fc848285016100c6565b91505092915050565b60805161195d61011d5f395f610651015261195d5ff3fe608060405260043610610094575f3560e01c8063b0d691fe11610058578063b0d691fe146101af578063b61d27f6146101d9578063bc197c8114610201578063d087d2881461023d578063f23a6e611461026757610095565b806301ffc9a714610097578063150b7a02146100d35780631626ba7e1461010f57806319822f7c1461014b57806334fcd5be1461018757610095565b5b005b3480156100a2575f5ffd5b506100bd60048036038101906100b89190610d9f565b6102a3565b6040516100ca9190610de4565b60405180910390f35b3480156100de575f5ffd5b506100f960048036038101906100f49190610fc6565b6104ac565b6040516101069190611055565b60405180910390f35b34801561011a575f5ffd5b50610135600480360381019061013091906110a1565b6104bf565b6040516101429190611055565b60405180910390f35b348015610156575f5ffd5b50610171600480360381019061016c919061111e565b6104ec565b60405161017e9190611199565b60405180910390f35b348015610192575f5ffd5b506101ad60048036038101906101a8919061120f565b61051e565b005b3480156101ba575f5ffd5b506101c361064e565b6040516101d091906112b5565b60405180910390f35b3480156101e4575f5ffd5b506101ff60048036038101906101fa9190611323565b610675565b005b34801561020c575f5ffd5b5061022760048036038101906102229190611454565b6106e4565b6040516102349190611055565b60405180910390f35b348015610248575f5ffd5b506102516106f8565b60405161025e9190611199565b60405180910390f35b348015610272575f5ffd5b5061028d6004803603810190610288919061151f565b61077f565b60405161029a9190611055565b60405180910390f35b5f7f01ffc9a7000000000000000000000000000000000000000000000000000000007bffffffffffffffffffffffffffffffffffffffffffffffffffffffff1916827bffffffffffffffffffffffffffffffffffffffffffffffffffffffff1916148061036d57507f19822f7c000000000000000000000000000000000000000000000000000000007bffffffffffffffffffffffffffffffffffffffffffffffffffffffff1916827bffffffffffffffffffffffffffffffffffffffffffffffffffffffff1916145b806103d557507f1626ba7e000000000000000000000000000000000000000000000000000000007bffffffffffffffffffffffffffffffffffffffffffffffffffffffff1916827bffffffffffffffffffffffffffffffffffffffffffffffffffffffff1916145b8061043d57507f4e2312e0000000000000000000000000000000000000000000000000000000007bffffffffffffffffffffffffffffffffffffffffffffffffffffffff1916827bffffffffffffffffffffffffffffffffffffffffffffffffffffffff1916145b806104a557507f150b7a02000000000000000000000000000000000000000000000000000000007bffffffffffffffffffffffffffffffffffffffffffffffffffffffff1916827bffffffffffffffffffffffffffffffffffffffffffffffffffffffff1916145b9050919050565b5f63150b7a0260e01b9050949350505050565b5f6104ca8383610793565b6104db5763ffffffff60e01b6104e4565b631626ba7e60e01b5b905092915050565b5f6104f56107d4565b6104ff848461085e565b905061050e84602001356108d0565b610517826108d3565b9392505050565b610526610947565b5f8282905090505f5f90505b81811015610648573684848381811061054e5761054d6115b2565b5b905060200281019061056091906115eb565b90505f6105d5825f0160208101906105789190611612565b836020013584806040019061058d919061163d565b8080601f0160208091040260200160405190810160405280939291908181526020018383808284375f81840152601f19601f820116905080830192505050505050505a610a07565b90508061063957600184036105f1576105ec610a1e565b610638565b826105fb5f610a31565b6040517f5a15467500000000000000000000000000000000000000000000000000000000815260040161062f9291906116ff565b60405180910390fd5b5b50508080600101915050610532565b50505050565b5f7f0000000000000000000000000000000000000000000000000000000000000000905090565b61067d610947565b5f6106cd858585858080601f0160208091040260200160405190810160405280939291908181526020018383808284375f81840152601f19601f820116905080830192505050505050505a610a07565b9050806106dd576106dc610a1e565b5b5050505050565b5f63bc197c8160e01b905095945050505050565b5f61070161064e565b73ffffffffffffffffffffffffffffffffffffffff166335567e1a305f6040518363ffffffff1660e01b815260040161073b929190611798565b602060405180830381865afa158015610756573d5f5f3e3d5ffd5b505050506040513d601f19601f8201168201806040525081019061077a91906117d3565b905090565b5f63f23a6e6160e01b905095945050505050565b5f3073ffffffffffffffffffffffffffffffffffffffff166107b58484610a69565b73ffffffffffffffffffffffffffffffffffffffff1614905092915050565b6107dc61064e565b73ffffffffffffffffffffffffffffffffffffffff163373ffffffffffffffffffffffffffffffffffffffff1614333061081461064e565b909192610859576040517ffe34a6d3000000000000000000000000000000000000000000000000000000008152600401610850939291906117fe565b60405180910390fd5b505050565b5f6108bb8284806101000190610874919061163d565b8080601f0160208091040260200160405190810160405280939291908181526020018383808284375f81840152601f19601f82011690508083019250505050505050610793565b6108c65760016108c8565b5f5b905092915050565b50565b5f8114610944575f3373ffffffffffffffffffffffffffffffffffffffff16826040516108ff90611860565b5f6040518083038185875af1925050503d805f8114610939576040519150601f19603f3d011682016040523d82523d5f602084013e61093e565b606091505b50509050505b50565b3073ffffffffffffffffffffffffffffffffffffffff163373ffffffffffffffffffffffffffffffffffffffff1614806109b3575061098461064e565b73ffffffffffffffffffffffffffffffffffffffff163373ffffffffffffffffffffffffffffffffffffffff16145b33306109bd61064e565b909192610a02576040517ffe34a6d30000000000000000000000000000000000000000000000000000000081526004016109f9939291906117fe565b60405180910390fd5b505050565b5f5f5f845160208601878987f19050949350505050565b610a2f610a2a5f610a31565b610a93565b565b60603d5f831115610a495782811115610a48578290505b5b604051602082018101604052818152815f602083013e8092505050919050565b5f5f5f5f610a778686610a9b565b925092509250610a878282610af0565b82935050505092915050565b805160208201fd5b5f5f5f6041845103610adb575f5f5f602087015192506040870151915060608701515f1a9050610acd88828585610c52565b955095509550505050610ae9565b5f600285515f1b9250925092505b9250925092565b5f6003811115610b0357610b02611874565b5b826003811115610b1657610b15611874565b5b0315610c4e5760016003811115610b3057610b2f611874565b5b826003811115610b4357610b42611874565b5b03610b7a576040517ff645eedf00000000000000000000000000000000000000000000000000000000815260040160405180910390fd5b60026003811115610b8e57610b8d611874565b5b826003811115610ba157610ba0611874565b5b03610be557805f1c6040517ffce698f7000000000000000000000000000000000000000000000000000000008152600401610bdc9190611199565b60405180910390fd5b600380811115610bf857610bf7611874565b5b826003811115610c0b57610c0a611874565b5b03610c4d57806040517fd78bce0c000000000000000000000000000000000000000000000000000000008152600401610c4491906118b0565b60405180910390fd5b5b5050565b5f5f5f7f7fffffffffffffffffffffffffffffff5d576e7357a4501ddfe92f46681b20a0845f1c1115610c8e575f600385925092509250610d2f565b5f6001888888886040515f8152602001604052604051610cb194939291906118e4565b6020604051602081039080840390855afa158015610cd1573d5f5f3e3d5ffd5b5050506020604051035190505f73ffffffffffffffffffffffffffffffffffffffff168173ffffffffffffffffffffffffffffffffffffffff1603610d22575f60015f5f1b93509350935050610d2f565b805f5f5f1b935093509350505b9450945094915050565b5f604051905090565b5f5ffd5b5f5ffd5b5f7fffffffff0000000000000000000000000000000000000000000000000000000082169050919050565b610d7e81610d4a565b8114610d88575f5ffd5b50565b5f81359050610d9981610d75565b92915050565b5f60208284031215610db457610db3610d42565b5b5f610dc184828501610d8b565b91505092915050565b5f8115159050919050565b610dde81610dca565b82525050565b5f602082019050610df75f830184610dd5565b92915050565b5f73ffffffffffffffffffffffffffffffffffffffff82169050919050565b5f610e2682610dfd565b9050919050565b610e3681610e1c565b8114610e40575f5ffd5b50565b5f81359050610e5181610e2d565b92915050565b5f819050919050565b610e6981610e57565b8114610e73575f5ffd5b50565b5f81359050610e8481610e60565b92915050565b5f5ffd5b5f5ffd5b5f601f19601f8301169050919050565b7f4e487b71000000000000000000000000000000000000000000000000000000005f52604160045260245ffd5b610ed882610e92565b810181811067ffffffffffffffff82111715610ef757610ef6610ea2565b5b80604052505050565b5f610f09610d39565b9050610f158282610ecf565b919050565b5f67ffffffffffffffff821115610f3457610f33610ea2565b5b610f3d82610e92565b9050602081019050919050565b828183375f83830152505050565b5f610f6a610f6584610f1a565b610f00565b905082815260208101848484011115610f8657610f85610e8e565b5b610f91848285610f4a565b509392505050565b5f82601f830112610fad57610fac610e8a565b5b8135610fbd848260208601610f58565b91505092915050565b5f5f5f5f60808587031215610fde57610fdd610d42565b5b5f610feb87828801610e43565b9450506020610ffc87828801610e43565b935050604061100d87828801610e76565b925050606085013567ffffffffffffffff81111561102e5761102d610d46565b5b61103a87828801610f99565b91505092959194509250565b61104f81610d4a565b82525050565b5f6020820190506110685f830184611046565b92915050565b5f819050919050565b6110808161106e565b811461108a575f5ffd5b50565b5f8135905061109b81611077565b92915050565b5f5f604083850312156110b7576110b6610d42565b5b5f6110c48582860161108d565b925050602083013567ffffffffffffffff8111156110e5576110e4610d46565b5b6110f185828601610f99565b9150509250929050565b5f5ffd5b5f6101208284031215611115576111146110fb565b5b81905092915050565b5f5f5f6060848603121561113557611134610d42565b5b5f84013567ffffffffffffffff81111561115257611151610d46565b5b61115e868287016110ff565b935050602061116f8682870161108d565b925050604061118086828701610e76565b9150509250925092565b61119381610e57565b82525050565b5f6020820190506111ac5f83018461118a565b92915050565b5f5ffd5b5f5ffd5b5f5f83601f8401126111cf576111ce610e8a565b5b8235905067ffffffffffffffff8111156111ec576111eb6111b2565b5b602083019150836020820283011115611208576112076111b6565b5b9250929050565b5f5f6020838503121561122557611224610d42565b5b5f83013567ffffffffffffffff81111561124257611241610d46565b5b61124e858286016111ba565b92509250509250929050565b5f819050919050565b5f61127d61127861127384610dfd565b61125a565b610dfd565b9050919050565b5f61128e82611263565b9050919050565b5f61129f82611284565b9050919050565b6112af81611295565b82525050565b5f6020820190506112c85f8301846112a6565b92915050565b5f5f83601f8401126112e3576112e2610e8a565b5b8235905067ffffffffffffffff811115611300576112ff6111b2565b5b60208301915083600182028301111561131c5761131b6111b6565b5b9250929050565b5f5f5f5f6060858703121561133b5761133a610d42565b5b5f61134887828801610e43565b945050602061135987828801610e76565b935050604085013567ffffffffffffffff81111561137a57611379610d46565b5b611386878288016112ce565b925092505092959194509250565b5f67ffffffffffffffff8211156113ae576113ad610ea2565b5b602082029050602081019050919050565b5f6113d16113cc84611394565b610f00565b905080838252602082019050602084028301858111156113f4576113f36111b6565b5b835b8181101561141d57806114098882610e76565b8452602084019350506020810190506113f6565b5050509392505050565b5f82601f83011261143b5761143a610e8a565b5b813561144b8482602086016113bf565b91505092915050565b5f5f5f5f5f60a0868803121561146d5761146c610d42565b5b5f61147a88828901610e43565b955050602061148b88828901610e43565b945050604086013567ffffffffffffffff8111156114ac576114ab610d46565b5b6114b888828901611427565b935050606086013567ffffffffffffffff8111156114d9576114d8610d46565b5b6114e588828901611427565b925050608086013567ffffffffffffffff81111561150657611505610d46565b5b61151288828901610f99565b9150509295509295909350565b5f5f5f5f5f60a0868803121561153857611537610d42565b5b5f61154588828901610e43565b955050602061155688828901610e43565b945050604061156788828901610e76565b935050606061157888828901610e76565b925050608086013567ffffffffffffffff81111561159957611598610d46565b5b6115a588828901610f99565b9150509295509295909350565b7f4e487b71000000000000000000000000000000000000000000000000000000005f52603260045260245ffd5b5f5ffd5b5f5ffd5b5f5ffd5b5f82356001606003833603038112611606576116056115df565b5b80830191505092915050565b5f6020828403121561162757611626610d42565b5b5f61163484828501610e43565b91505092915050565b5f5f83356001602003843603038112611659576116586115df565b5b80840192508235915067ffffffffffffffff82111561167b5761167a6115e3565b5b602083019250600182023603831315611697576116966115e7565b5b509250929050565b5f81519050919050565b5f82825260208201905092915050565b8281835e5f83830152505050565b5f6116d18261169f565b6116db81856116a9565b93506116eb8185602086016116b9565b6116f481610e92565b840191505092915050565b5f6040820190506117125f83018561118a565b818103602083015261172481846116c7565b90509392505050565b61173681610e1c565b82525050565b5f819050919050565b5f77ffffffffffffffffffffffffffffffffffffffffffffffff82169050919050565b5f61178261177d6117788461173c565b61125a565b611745565b9050919050565b61179281611768565b82525050565b5f6040820190506117ab5f83018561172d565b6117b86020830184611789565b9392505050565b5f815190506117cd81610e60565b92915050565b5f602082840312156117e8576117e7610d42565b5b5f6117f5848285016117bf565b91505092915050565b5f6060820190506118115f83018661172d565b61181e602083018561172d565b61182b604083018461172d565b949350505050565b5f81905092915050565b50565b5f61184b5f83611833565b91506118568261183d565b5f82019050919050565b5f61186a82611840565b9150819050919050565b7f4e487b71000000000000000000000000000000000000000000000000000000005f52602160045260245ffd5b6118aa8161106e565b82525050565b5f6020820190506118c35f8301846118a1565b92915050565b5f60ff82169050919050565b6118de816118c9565b82525050565b5f6080820190506118f75f8301876118a1565b61190460208301866118d5565b61191160408301856118a1565b61191e60608301846118a1565b9594505050505056fea264697066735822122060a90657b39568c13faf94bf5c4650b2b02f03a1d4f23c149f1989b88502ee2864736f6c634300081c0033",
  "linkReferences": {},
  "deployedLinkReferences": {},
  "immutableReferences": {
    "6615": [
      {
        "length": 32,
        "start": 1617
      }
    ]
  },
  "inputSourceName": "project/contracts/accounts/Simple7702Account.sol",
  "buildInfoId": "solc-0_8_28-7ff7631a7cdd57a86742051c063fe36f91905a53"
}